:100000000C94EB020C9432030C9432030C9467189A
:100010000C9432030C9432030C9432030C9432038C
:100020000C9432030C9432030C94B02B0C94832C5C
:100030000C944E260C9432030C9432030C9432032D
:100040000C9432030C9432030C9432030C9432035C
:100050000C9432030C94B9260C9432030C943203A2
:100060000C9432030C9432030C9432030C9432033C
:100070000C9432030C9432030C9432030C9432032C
:100080000C9432030C9432030C9432030C9432031C
:100090000C9432030C9432030C9432030C9432030C
:1000A0000C9432030C9432030C9432032B00140092
:1000B0001A00080015001700E000040016000700F1
:1000C00009000A0000001D001B00060019000500C1
:1000D00000000000E200E3002C41E10031001300C9
:1000E00012000C0018001C00340033000F000E003A
:1000F0000D000B0000003800370036001000110022
:10010000000000002A0028002C424C0029001E009C
:100110001F00200021002200E0001E021F0220021A
:10012000210222020000000000002F022F00260200
:1001300000000000E200E3002C41E100350227004E
:10014000260025002400230035002E022D00250264
:100150002402230200002E002D023002300027026C
:10016000000000002A0028002C424C0029003A0020
:100170003B003C003D003E00E000810080007F002D
:10018000C55CC95C000047004800C25CC35CCA5C37
:1001900000000000E200E3002C41E10044004300C5
:1001A0004200410040003F00450000004F00520067
:1001B00051005000000000004D004B004E004A006E
:1001C000000000002A0028002C424C000000000023
:1001D000000000000000000000000000000000001F
:1001E000000000000000000000000000000000000F
:1001F00000000000000000000000000000000000FF
:1002000000000000000000000000000000000000EE
:1002100000000000000000000000000000000000DE
:1002200000000000000000000000000000000000CE
:10023000000000002A2B2800000000000000000041
:100240000000000000000029000000002C1E3420E7
:10025000212224342627252E362D3738271E1F200D
:100260002122232425263333362E37381F04050652
:100270000708090A0B0C0D0E0F1011121314151696
:100280001718191A1B1C1D2F3130232D3504050694
:100290000708090A0B0C0D0E0F1011121314151676
:1002A0001718191A1B1C1D2F3130354C0000000087
:1002B000000000000000000000000000000000003E
:1002C0007E0F00D4FFFFFFC70000007832190A003C
:1002D000047F3F1F643214643214783C1E1E140ADB
:1002E000052223252628292A2C2D2F303233353676
:1002F000383A3B3D3E4042434547494A4C4E5051B7
:10030000535557595A5C5E6062646668696B6D6FDD
:1003100071737577797B7D7F81838587898A8C8EE0
:1003200090929496989A9C9E9FA1A3A5A7A8AAACE8
:10033000AEAFB1B3B4B6B8B9BBBCBEBFC1C2C3C522
:10034000C6C7C9CACBCCCDCED0D1D2D2D3D4D5D6C4
:10035000D7D7D8D9D9DADADBDBDBDCDCDCDCDCDDF7
:10036000DDDDDDDCDCDCDCDCDBDBDBDADAD9D9D8DB
:10037000D7D7D6D5D4D3D2D2D1D0CECDCCCBCAC973
:10038000C7C6C5C3C2C1BFBEBCBBB9B8B6B4B3B1A2
:10039000AFAEACAAA8A7A5A3A19F9E9C9A9896943D
:1003A00092908E8C8A89878583817F7D7B79777512
:1003B00073716F6D6B6968666462605E5C5A5957F1
:1003C000555351504E4C4A4947454342403E3D3BB0
:1003D0003A3836353332302F2D2C2A29282625233A
:1003E00022FFAA7F55400001010101010101010125
:1003F00002020202020202020203030303030303D6
:1004000003040404040404040505050505060606A2
:100410000606070707070708080808090909090A5F
:100420000A0A0B0B0B0C0C0C0D0D0D0E0E0E0F0F04
:100430000F10101111111212131314141515161692
:100440001717181819191A1A1B1B1C1D1D1E1E1F01
:100450002020212222232424252626272829292A50
:100460002B2C2D2D2E2F3031323233343536373878
:10047000393A3B3C3D3E3F40414243444546474874
:10048000494A4C4D4E4F50515354555658595A5B4A
:100490005D5E5F616264656668696B6C6D6F7072EA
:1004A000737577787A7B7D7E8082838587888A8C56
:1004B0008E8F91939596989A9C9EA0A2A3A5A7A98A
:1004C000ABADAFB1B3B5B7BABCBEC0C2C4C6C9CB81
:1004D000CDCFD1D4D6D8DBDDDFE2E4E7E9EBEEF037
:1004E000F3F5F8FAFDFF0403300000001603650081
:1004F0006C0065007000680061006E0074003400DC
:1005000032000000160369006C006C006E0065008C
:100510007300730030003700320000000403090448
:1005200009024200020100A0FA09040000010301CF
:100530000100092111010001224000070581030883
:10054000000A090401000203000000092111010052
:100550000122220007058203200001070503032072
:1005600000011201100100000008494621070100A6
:10057000010203010660FF0961A10109621500265D
:10058000FF009520750881020963150026FF00957C
:100590002075089102C005010906A101050719E0AF
:1005A00029E7150025019508750181029501750857
:1005B00081010507190029FF150026FF0095067522
:1005C0000881000508190129059505750191029515
:1005D0000175039101C011241FBECFEFDAE0DEBF29
:1005E000CDBF04B603FE27C08091FE039091FF03A8
:1005F000A0910004B09101048730904BA740B04B0C
:10060000D1F41092FE031092FF0310920004109296
:10061000010414BE84B7877F84BF0FB6F894A895F1
:1006200080916000886180936000109260000FBE2E
:10063000E0E0F8E3099511E0A0E0B1E0E6E2F0E6E1
:1006400002C005900D92A237B107D9F723E0A2E7C7
:10065000B1E001C01D92AE3FB207E1F70E946C28E5
:100660000C94B42F0C940000CF939C01FB01293013
:100670008DE5380791F02A308DE53807A9F0C1E003
:1006800028303D4539F4C281CC2321F080E00E941E
:100690006404C0E08C2FCF910895C28181E0CC2307
:1006A00031F00E943B22F5CFC28182E0F8CF0E9458
:1006B0006C22F0CF08950895089581E008950C9478
:1006C000340308950C9461031F93CF93DF9300D0FC
:1006D00000D00F92CDB7DEB749835A836B83309138
:1006E000B90289819A8131111DC06623B9F0222394
:1006F000A9F00E94A423182F682F89819A810E9453
:100700004B2369817A81812F0F900F900F900F906A
:100710000F90DF91CF911F910C942F150E947A2397
:10072000182FEFCF0E94A42369817A81EDCFFC01BD
:10073000262F408151816281738184810C946403EE
:10074000CF93DF93D82FC92F60E00E9497036D2FBE
:100750007C2FDF91CF910C946203FF920F931F9334
:10076000CF93DF93E82FF0E0E45DFD4FF490C82FC6
:10077000C695C695C695D0E0FE01E454FD4F0491A0
:10078000877010E0082E02C0159507950A94E2F7CD
:1007900001701127C455DD4FFE01C491D0E002C0A5
:1007A000D595C7958A95E2F7C170DD27011511052A
:1007B00019F081EE0E949F1A209719F086EE0E9490
:1007C0009F1A8F2D0E945E1BCD2B19F086EE0E9482
:1007D0000F1B012B41F081EEDF91CF911F910F9103
:1007E000FF900C940F1BDF91CF911F910F91FF9001
:1007F0000895EF92FF920F931F93CF93DF93EC0135
:10080000162F0AE08881882309F454C0813009F04A
:100810004EC08981813099F47E0122E0E20EF11C04
:100820008A810E945E1BE7012196812F815050F33F
:10083000EFE9FFE03197F1F700C00000F7CF823019
:1008400041F47E0182E0E80EF11C8A810E949F1A29
:10085000EACF833041F47E01E2E0EE0EF11C8A81A2
:100860000E940F1BE0CF843011F02196DDCF2A814A
:10087000229690E080E0AE014F5F5F4F2053330B34
:100880002A30310548F0019778F2EFE9FFE031971F
:10089000F1F700C00000F7CF089FB001099F700D6D
:1008A0001124C901860F971F2981EA01E4CF0E9414
:1008B000AD03BACFDF91CF911F910F91FF90EF90D1
:1008C000089560E00C94F903CF93DF9300D000D03B
:1008D000CDB7DEB721E030E002C0220F331F8A958A
:1008E000E2F73A83298389810E940C25A981BA8184
:1008F000CD01B0E0A0E089839A83AB83BC83BC01C7
:10090000CD010F900F900F900F90DF91CF910C942D
:1009100087218F929F92AF92BF92CF92DF92EF92F8
:10092000FF920F931F93CF93DF9300D000D0CDB7EA
:10093000DEB76B017C0181E090E0A0E0B0E04C010B
:100940005D0104C0880C991CAA1CBB1C4A95D2F7F7
:10095000B501A4014C015D0104C0880C991CAA1CBE
:10096000BB1C2A95D2F7482959296A297B2904C03A
:10097000880F991FAA1FBB1F0A95D2F78A019B01F6
:100980000C211D212E213F210417150726073707AB
:10099000F9F49C01AD012C293D294E295F292983B9
:1009A0003A834B835C8369817A818B819C810F9030
:1009B0000F900F900F90DF91CF911F910F91FF90AB
:1009C000EF90DF90CF90BF90AF909F908F90089561
:1009D00080959095A095B0954C015D018C209D204F
:1009E000AE20BF2089829A82AB82BC82DCCF0F937B
:1009F000CF93DF9300D000D0CDB7DEB7262F042FE2
:100A000040911003509111036091120370911303F0
:100A100049835A836B837C83482F69817A818B81D8
:100A20009C810E9489040F900F900F900F90DF918E
:100A3000CF910F910C9405220E94F0260E94F92478
:100A4000811102C00E949B250C9463070C946507DA
:100A50000C945C0381E008950C942A05CF93C82F71
:100A60000E9428058C2FCF910C942C0508950E948C
:100A7000F81D0E9436052FEF84E39CE02150804052
:100A80009040E1F700C000000C94DD260F931F9307
:100A9000CF93DF93EC0161E00E9497038C01BE01CC
:100AA0000E94AB12882389F1BE01C8010E945F0336
:100AB000882359F1BE01C8010E947016882329F1CC
:100AC000BE01C8010E94B4168823F9F0BE01C80116
:100AD0000E9487178823C9F0BE01C8010E94A9118E
:100AE000882399F08A81882339F001158CE518074D
:100AF00051F00E3D1C4579F0CE01DF91CF911F9151
:100B00000F910C945D030E94370580E0DF91CF9137
:100B10001F910F9108950E949B25F7CF90E080E0F0
:100B200008950895FC01EE0FFF1FE453FD4F8591DA
:100B300094910895CF93DF930E942F150E94880609
:100B4000EC01811522E5920708F057C0811531E5C7
:100B5000930708F0B2C0811540E3940718F5C1155A
:100B600080E2D80708F0A0C0C03ED10578F4C03CB0
:100B7000D10508F092C0C130D10581F0CE010497B3
:100B8000813A910558F0D0E0C0E008C0C83ED105D8
:100B900028F0CE019A9581159F41A8F7CE01DF91EB
:100BA000CF910895811530E5930758F4811540E4FD
:100BB000940708F07FC09927D3FD79C0EC01D06C71
:100BC000EDCFE4E096958795EA95E1F783702C2FB9
:100BD00026952695237090E2299F90011124382BA9
:100BE0008C2F8370C1E0D0E002C0CC0FDD1F8A954E
:100BF000E2F7C22BD32BDC68D1CF811526E5920713
:100C000030F5811535E5930708F06BC0811544E593
:100C10009407C0F4982F969596959E0123703327DC
:100C2000C115D34508F04EC0C1E0D0E002C0CC0FE2
:100C3000DD1F2A95E2F720E2929FC0011124C82B04
:100C4000D92BD9CFD82FCC27C46FD06AA7CF811585
:100C50003AE5930780F4811549E5940708F04BC005
:100C600098558F3F910511F008F08DCFDC2FCC27E0
:100C7000C06FD06A93CF90568115904208F083CF11
:100C80008D2F8F710E94200790E0982F882788274A
:100C90009F719C012C2BE9012CC0CE01805C910935
:100CA0000E949205EC017ACFCE019F70F9CFEC0142
:100CB000D86C74CFDF70D06A71CFD82FCC27C16FBA
:100CC000D06A6CCFC1E0D0E002C0CC0FDD1F2A9506
:100CD000E2F730E2939FC0011124C82BD92BDA68C8
:100CE0005DCF0E942007C82FD0E0DC2FCC27CC2777
:100CF000DF71D06253CF8F700E94200734E0D69509
:100D0000C7953A95E1F7CF70DC2FC82FD06946CF51
:100D1000803E910599F1C8F48133910509F476C0BC
:100D200048F48932910509F46AC08A32910509F4C0
:100D300074C0089589339105D1F082389105B9F0D6
:100D40008533910509F454C00895843E910599F1C5
:100D500038F4823E9105F9F0833E910509F108953A
:100D6000863E910599F1873E9105B9F1089520914C
:100D7000EF032370A1F080EE90E008952091EF033F
:100D800020FD52C03091F00330FF09C024FF4FC056
:100D900090E080E004C02091EF0322FDF7CF08959A
:100DA0002091EF0322FD46C03091F00330FDE3CFE8
:100DB00024FFF5CFEDCF2091F00321FFF0CF8091FC
:100DC000EF0384FDE5CF87EE90E008952091EF03D7
:100DD00023FFE5CF24FDDCCFF6CF2091EF0323FDE9
:100DE0002CC03091F00331FFE3CF84EE90E0089502
:100DF0002091EF0325FFD3CF89E290E00895209161
:100E0000EF0325FFCCCF85E390E008952091EF0319
:100E100026FFC5CF8AE290E008952091EF0326FFD8
:100E2000BECF81E390E0089589E390E0089583EEDA
:100E300090E0089582EE90E0089586EE90E00895A7
:100E40009091EF0392FF06C0282F28712830F9F403
:100E5000877F846093FF06C0282F28712831F1F422
:100E6000877E84612091F00320FF06C0382F3871FF
:100E70003830D9F4877F816021FF06C0282F287180
:100E80002831D1F4877E816194FD877E0895282FD3
:100E900024712430F9F68B7F8860DCCF282F2471F1
:100EA000243101F78B7E8861DDCF382F31713130ED
:100EB00019F78E7F8860E0CF282F2171213121F72B
:100EC0008E7E8861E1CF0C945A030C945B03E82F6B
:100ED000F0E0E65CFC4F80810895089580EA8A95F1
:100EE000F1F7089508950E94CE0880910401809141
:100EF000040194E0811190E09093430384E0891B06
:100F000080934203AEE3B1E061E070E08D91E82FA1
:100F1000E295EF70F0E041A18F709B0101C0220FBC
:100F20008A95EAF7922F9095942391A382A1822B20
:100F300082A381E0A234B80749F7A8E3B1E061E0F9
:100F400070E08D91E82FE295EF70F0E041A18F7095
:100F50009B0101C0220F8A95EAF7922F9095942366
:100F600091A382A1822B82A381E0AE33B80749F717
:100F7000E2E3F3E0AAE3B3E08AE393E011921D9287
:100F80008E179F07D9F784E00E9478080E941C05FD
:100F90000C94E3080E94AF088823F1F0809142038B
:100FA00090E0865C9C4F0E941309811112C08091D1
:100FB00072018F5F80937201863048F0E0914203A6
:100FC000F0E0E65CFC4F10821182128213820C94D6
:100FD000260510927201FBCF8091430390E0865C5E
:100FE0009C4F0E9432090C9472078F929F92AF928D
:100FF000BF92CF92DF92EF92FF920F931F93CF9306
:10100000DF938EE3A82E81E0B82E02E313E0912C4B
:10101000CC24C394D12CF50181915F01C82FC295D6
:10102000CF70D0E099A18F70760101C0EE0C8A9547
:10103000EAF7892F8E2989A38AA18E2C8094882192
:101040008AA30E946E07E8E3F1E050E040E020E070
:101050003191A32FA295AF70B0E090968C9190E063
:101060003F7002C0959587953A95E2F780FD3CC0A8
:101070008C2D042E01C0880F0A94EAF7282B4F5FAD
:101080005F4F4630510521F789A1882289A28AA1A4
:10109000E82AEAA2F8018081281741F1208381E043
:1010A000982A0F5F1F4FF2E4AF16F1E0BF0609F078
:1010B000B2CF6091430370E0665C7C4F292D44E021
:1010C00082E393E00E9479080E94CA07892DDF918C
:1010D000CF911F910F91FF90EF90DF90CF90BF9035
:1010E000AF909F908F90089580E0C8CF80E0D8CFD8
:1010F0000895FF920F931F93CF93DF93F82E092F3C
:10110000162FD72FC42F222349F081E08093750139
:101110000E947E26909374018093730180917501E3
:101120008823A1F080917301909174010E94AA26F6
:10113000069760F0EF2DF02FA12FBD2FCE0FDF2FE0
:10114000D11DEC17FD0741F410927501DF91CF918D
:101150001F910F91FF90089581918D93F2CF80910F
:101160007601811110C08091D80080618093D800F1
:101170008AE18A95F1F700C08091D90080FD0AC00C
:1011800082E08093760181E090917601913009F0C0
:1011900080E0089581E0F5CF0C94AF080E94CC0860
:1011A00080930401809104016BE1882349F080E081
:1011B0000E94DC090E94AF08882321F00C94EA0801
:1011C0008BE1F6CF08950E94AF08811102C00C9404
:1011D000F008089562E070E085E091E00C94141846
:1011E00062E070E085E091E00C941D180E943A0FD7
:1011F000882361F08DE791E00E94400F81E090E04C
:101200000E94F618892B11F40C943D0F08958091DB
:101210007C01883039F460E08DE791E00E9486100F
:1012200010927C010895CF93DF93D82FC92F0E948D
:10123000F60890E080E00E94F6189C0180E02115FD
:10124000310569F4ED2FFC2FD901A858BE4F8C91C0
:1012500081932F5F3F4F24303105B1F781E0DF915B
:10126000CF910895CF93DF93D82FC92F0E940709FC
:10127000ED2FFC2F90E080E02191DC01A858BE4FBB
:101280002C93019684309105B9F7DF91CF910895A1
:10129000AF92BF92CF92DF92EF92FF920F931F9384
:1012A000CF93DF93362F472FE82FF0E0EA51FC4F22
:1012B00071110EC06491762F862FDF91CF911F910F
:1012C0000F91FF90EF90DF90CF90BF90AF90089577
:1012D000C72FD0E0249186E0689F700111240FEFA2
:1012E00010E0C701B8010E944F2E832F90E0880FB5
:1012F000991F35E5369FF001379FF00D11248E1BA5
:101300009F0B982F990F980FF801EC1BFD0B2E9F48
:10131000D0012F9FB00D1124EB2F949FA001112419
:10132000452F55276801C41AD50AA601249F6001DC
:10133000259FD00C11248D2D5801A91AB108AC9EFF
:10134000A001AD9E500DBC9E500D1124452F552778
:10135000041B150B209FA001219F500D1124633009
:101360007105D9F09CEFE91693E0F90668F4613055
:101370007105B9F062307105C1F09FEFE916F10413
:1013800048F48B2FE52F06C06430710589F0663074
:101390007105B9F36E2F722F90CFED2D822F2B2F69
:1013A000F9CFE22F2D2D8B2FF5CF852FE22FF7CF01
:1013B000822F252FEFCF0895E7E1F1E0808361834D
:1013C0000895CF93DF93982F762F842FE901692F0B
:1013D0000E944809798368838A83DF91CF910895B9
:1013E000493708F048E70C94E10980914403982FAD
:1013F0009E7F61F4817082608093440380914703F3
:10140000893718F088E78093470308958635B0F34D
:1014100081708465F1CF88E090E00C94112F0F93D8
:101420001F93CF93DF938B01D82FC92F0E94F5090B
:10143000A8016D2F7C2F88E090E0DF91CF911F9164
:101440000F910C942F2FCF93DF9300D000D0CDB706
:10145000DEB78091440390914503A0914603B0917B
:10146000470389839A83AB83BC83BC01CD010F9072
:101470000F900F900F90DF91CF910C940F0ACF93A4
:10148000DF9300D000D0CDB7DEB7E4E4F3E083E033
:10149000808311828FEF828388E783831482A0EA9E
:1014A000B2E012968C911297836012968C93808191
:1014B0009181A281B38189839A83AB83BC83BC0170
:1014C000CD010F900F900F900F90DF91CF910C9462
:1014D0000F0A8091440380FF02C08695089580E042
:1014E0000895CF93DF9300D000D0CDB7DEB78091C1
:1014F0004803833018F48F5F80934803809144033E
:1015000090914503A0914603B091470389839A8344
:10151000AB83BC83BC01CD010F900F900F900F9057
:10152000DF91CF910C940F0ACF93DF9300D000D0BE
:10153000CDB7DEB780914803882319F0815080939E
:1015400048038091440390914503A0914603B091D4
:10155000470389839A83AB83BC83BC01CD010F9081
:101560000F900F900F90DF91CF910C940F0A809104
:1015700048030895CF93DF9300D000D0CDB7DEB7F6
:10158000809348036623B1F0809144039091450312
:10159000A0914603B091470389839A83AB83BC83B0
:1015A000BC01CD010F900F900F900F90DF91CF9164
:1015B0000C940F0A0F900F900F900F90DF91CF9126
:1015C000089560E00C94BA0A8091450308958091D3
:1015D0004603089580914703089570E00C94181213
:1015E000609118018091440380FF0AC08091170127
:1015F00023E0829FC0011124875B9C4F0C94ED0A6D
:101600008091190190911A0123E0829FF001112429
:10161000E75BFC4F891750F71182108212828F5FAF
:101620003396F8CF9091440390FF14C09091190124
:1016300020911A0133E0939FF0011124E75BFC4FE6
:10164000921710F00C94F00A8183608342839F5FAD
:101650003396F6CF0895CF93DF9300D00F92CDB796
:10166000DEB79091440390FF0AC09E012F5F3F4F69
:101670000E94F0094B8169818A810E94120B0F90B0
:101680000F900F90DF91CF910895CF93DF93EC01EE
:10169000EC81F0E0EF51FD4F4491E4E4F3E062812E
:1016A00081810E942B0B8C818F5F8C83DF91CF9186
:1016B0000895CF93DF93EC01E4E4F3E0438162818A
:1016C0008C810E942B0B8C818F5F8C83DF91CF915B
:1016D00008950F931F93CF93DF9300D00F92CDB750
:1016E000DEB78C018091850181110AC09E012F5FB8
:1016F0003F4F48E76FEF0E94F0098A818093850190
:10170000F8016481613049F06230F1F08091850127
:1017100040E0662331F040E019C06091850140E06F
:1017200080E00E94120BF801848190E0019663E052
:1017300070E00E94632E84830F900F900F90DF91D2
:10174000CF911F910F9108954091850180E060E055
:10175000E8CFAF92BF92CF92DF92EF92FF920F93BA
:101760001F93CF93DF9300D000D000D00F92CDB75E
:10177000DEB7182FF62E042FD22E9091440390FF3F
:101780003DC0E92FE695AE2FB0E0AA5BBE4F8C912D
:101790008093A0029E7F923009F041C09E012F5F8E
:1017A0003F4F812F0E94F0094B8169818A810E94FD
:1017B000120B80914503811308C0809146038F115D
:1017C00004C080914703801729F08091A2028260B3
:1017D0008093A20210934503F092460300934703BF
:1017E000DD2061F08091440390914503A091460370
:1017F000B0914703BC01CD010E940F0A27960FB696
:10180000F894DEBF0FBECDBFDF91CF911F910F9136
:10181000FF90EF90DF90CF90BF90AF90089582300F
:1018200019F400914703C5CF863019F41091450390
:10183000C0CF8930D9F3893109F0BBCFE9518E2F60
:101840008170C82EE695F0E0EF51FC4FA590B49062
:10185000E12CBB2460911B01E61618F00E94F00AEF
:10186000A8CF2E2D30E0EA9CC001EB9C900D1124F6
:1018700070E00E944F2E812FC11013C0860F40913F
:101880001901420F532F511D9A01220F331F240FAC
:10189000351F275B3C4F402F6F2D0E94F009E394CA
:1018A000D9CF861BECCF282FE4E4F3E0818143817C
:1018B0006281865F0C94A90B81E00C94530C282F55
:1018C000E4E4F3E08181438162818A500C94A90BA6
:1018D00081E00C945F0C282FE4E4F3E0628131E1B5
:1018E000630F08F46FEF438181810C94A90B81E0B1
:1018F0000C946B0C282FE4E4F3E0628131E1631B6C
:1019000008F460E0438181810C94A90B81E00C9480
:101910007A0C282FE4E4F3E0438131E1430F08F42B
:101920004FEF628181810C94A90B81E00C94890CAA
:10193000282FE4E4F3E0438131E1431B08F440E065
:10194000628181810C94A90B81E00C94980C20E0B9
:101950000C94A90BEF92FF921F93CF93DF93EC01AE
:1019600010E0EE24EA94F12C60911B01161770F040
:101970000E94F00A9A818C8190FF27C08F5F8C8330
:10198000DF91CF911F91FF90EF9008952091190161
:10199000422F410F5527551FCA019A01220F331FAD
:1019A000280F391F275B3C4F70E0C7010E94632E50
:1019B000962F8C814091470360914603199F800DBB
:1019C00011240E94F0091F5FCFCF8150D8CF9F9282
:1019D000AF92BF92CF92DF92EF92FF920F931F933D
:1019E000CF93DF93EC018A81BB24BA9480FD02C0BF
:1019F000BB24B3948C8181110AC081E0B81227C046
:101A000080911B0181508093870181E08C83A12C00
:101A100080911B01A816F0F00E94F00A80918701C6
:101A200091E0B91260C0811159C080911B018150B1
:101A3000809387011C82DF91CF911F910F91FF90BE
:101A4000EF90DF90CF90BF90AF909F90089510924D
:101A50008701DBCF00911901CA2CD12C0C0D1D2D53
:101A6000111DC801880F991F080F191F075B1C4F14
:101A7000F80111821082128234E0E32EF12C912CB5
:101A800080918701890D87331CF166E30E94412E06
:101A9000892F082E000C990BC816D90691F4809155
:101AA00047038E9DA0018F9D500D1124559547959C
:101AB00055954795980160914603809145030E9492
:101AC000F0099B0CF1E0EF1AF108D1F6A394A0CF36
:101AD00087FFDFCF90911B01890FDBCF815080936F
:101AE0008701BC82A8CF90E0019660911B0170E055
:101AF0000E94632E809387018C839DCFEF92FF928B
:101B00000F931F93CF93DF93EC018C81811109C058
:101B100081E08C831092860192E09093160180936D
:101B200015018091190190911A0123E0829FF00123
:101B30001124E75BFC4F891768F110E003E0609126
:101B40001B01161768F10E94F00A8091150120917F
:101B50008601280F2093860190911601980F90938B
:101B60001601191654F4022E000C330B40911B0180
:101B70004150550B2417350734F08195809315019A
:101B8000813009F41C82DF91CF911F910F91FF905A
:101B9000EF9008951182108212828F5F3396CBCF1F
:101BA000E12EF12C70E0C7010E94632E20911901F3
:101BB000820F482F50E020918601022E000C330B3B
:101BC000E216F306BCF020911601022E000C330B36
:101BD0002E153F057CF0809F90011124275B3C4F20
:101BE0004091470360914603809145030E94F009AC
:101BF0001F5FA5CFFA01EE0FFF1FE40FF51FE75B94
:101C0000FC4F118210821282F3CF0F931F93CF9358
:101C1000DF938C01FC018481958101968170992765
:101C200095838483C0E0D5E580911B01C81730F00F
:101C3000DF91CF911F910F910C94F00A209119011F
:101C4000422F4C0F5527551FCA019A01220F331FEF
:101C5000280F391F275B3C4F8C2F8695F801448154
:101C60005581840F952F911D81704091470360919C
:101C700046038D9F802D11240E94F009CF5FD4CFA1
:101C80000F931F93CF93DF93EC0110E000E090914E
:101C90001B019017110609F06CF40E94F00A8C8168
:101CA00090E00196817099278C83DF91CF911F91ED
:101CB0000F91089520911901A801420F511D9A0119
:101CC000220F331F240F351F275B3C4F4C8160913F
:101CD00046038091450396959017110651F04CF0FC
:101CE000442349F0409147030E94F0090F5F1F4FC2
:101CF000CECF4423B9F340E0F7CF8F929F92AF92BB
:101D0000BF92CF92DF92EF92FF920F931F93CF93E8
:101D1000DF93FC01B280948081E0848300E015E0D1
:101D20005BE4A52E88248394EE24EA94F12C7BE4D2
:101D3000C72ED12C80911B01081770F0DF91CF9135
:101D40001F910F91FF90EF90DF90CF90BF90AF90D9
:101D50009F908F900C94F00AC02FD0E01C9FF00150
:101D60001D9FF00D1124E557FE4F91101CC01382EA
:101D7000128220911901CE01820F911D9C01220F28
:101D8000331F280F391F275B3C4F1C9FF0011D9FFD
:101D9000F00D1124E557FE4F4281618180810E9440
:101DA000F0090F5FC7CF2381222379F121502383CC
:101DB00034818A2D821B311101C0822F1C9FF001BA
:101DC0001D9FF00D1124E557FE4F90914703899F09
:101DD000C0011124B6010E944F2E6283211104C05C
:101DE000332311F01482A38222E02B1510F21C9FE2
:101DF000F0011D9FF00D1124E557FE4F8091450322
:101E00008083809146038183B4CF0E94EC2E823080
:101E100091400CF0AECF82E08B1530F50E94EC2E95
:101E2000B7010E94632E1C9FF0011D9FF00D11242D
:101E3000E557FE4F808322E02B15C8F40E94EC2E5C
:101E4000209146032695622F70E00E94632E280F92
:101E50001C9FF0011D9FF00D1124E557FE4F2183BB
:101E60001282A382848285CF80914503DCCF2091AA
:101E70004603EECF8091A20208951092A202089527
:101E8000CF93DF93EC0185E0E4E4F3E0DE01019021
:101E90000D928A95E1F78091A0029091A102A09104
:101EA000A2028D839E83AF83DF91CF910895E0EAF4
:101EB000F2E011828281846082830895E4E4F3E099
:101EC00080818E7F80830E94570FE0EAF2E082815A
:101ED000816082832FEF80E792E021508040904024
:101EE000E1F700C000000C94F00ACF93DF9300D01C
:101EF00000D0CDB7DEB7E4E4F3E080818E7F80834D
:101F000080819181A281B38189839A83AB83BC83D1
:101F1000BC01CD010E940F0A0E94570FE0EAF2E0D7
:101F20008281816082839FEFA0E7B2E09150A04060
:101F3000B040E1F700C000000F900F900F900F909D
:101F4000DF91CF910C94F00A60914403669570E0A4
:101F50004BE050E08CE191E00E94FC2E892B19F4BB
:101F600081E08093A1020E947E2690939A02809342
:101F700099028091A20284608093A2020895CF9377
:101F8000DF9300D000D0CDB7DEB79091440390FF2F
:101F900046C09170811139C0926090934403809142
:101FA000A20281608093A202662381F080914403A3
:101FB00090914503A0914603B091470389839A838A
:101FC000AB83BC83BC01CD010E940F0A6091440326
:101FD000669570E04BE050E08CE191E00E94FC2EB1
:101FE000892BD1F00E94570F81E080939C02409191
:101FF000470360914603809145030F900F900F9027
:102000000F90DF91CF910C94A70C8B3210F0946558
:10201000C4CF880F982BC1CF0E94A40FE5CF0F909B
:102020000F900F900F90DF91CF910895682F8091BE
:10203000440386958F5F8B3208F081E00C94BF0FCC
:1020400081E00C941610682F9091440396958FEFC1
:10205000890F913009F48AE20C94BF0F81E00C944F
:10206000231061E00C94BF0FE4E4F3E08081816011
:10207000808386950C9431108091440380FD0C94EC
:10208000750F0C94341060E00C94BF0F80919F0288
:10209000811133C00E94F924811104C00E949B2544
:1020A0000E943F0A0E940B0A609344037093450309
:1020B00080934603909347038091A20283608093AC
:1020C000A2026E7F61F40E943F0A0E940B0A609395
:1020D00044037093450380934603909347030E9403
:1020E000F5090E94570F8091440380FF03C0869535
:1020F0000E94431081E080939F020895E4E4F3E09E
:1021000080818160808386950C9443101F93CF93C8
:10211000DF93EC01162F8F8180FF0CC0888180FF38
:1021200024C0809144038160809344038881869514
:102130000E94BF0F8F8181FF06C0212F4B816A81D2
:1021400089810E94A90B8F8182FF05C08E8188231F
:1021500079F00E94A40F8F8183FF03C081E08093F8
:102160009C02DF91CF911F9108950E945E0FE2CFF4
:102170000E94570FF0CFEF92FF920F931F93CF93D0
:10218000DF938091A102882309F468C08091A002A6
:10219000E0914403E695E81BE0939B02823009F04E
:1021A00064C0F0E0E352FD4FE491CE2FD0E005E4AF
:1021B0001BE080919C02882389F010929C020E946F
:1021C0007E269E0120953095280F391F30939A0264
:1021D0002093990210929E0210929D028091990282
:1021E00090919A020E94AA268C179D07B8F18091BF
:1021F0008A018823B1F010928A0180918801909120
:1022000089010E94AA268033954758F00E947E26B5
:1022100090938901809388018091A20288608093C5
:10222000A202E0909D02F0909E02E0919902F0914E
:102230009A02CE0FDF1FD0939A02C093990289E9C8
:1022400092E0F801099580919D0290919E02892B60
:1022500029F4EF2819F081E080938A01DF91CF9172
:102260001F910F91FF90EF900895863049F4F0E0B0
:10227000E652FD4FE491CE2FD0E009E51BE099CF67
:10228000893051F4E695F0E0E952FD4FE491CE2F0C
:10229000D0E00AEA1CE08DCF8F3051F4E695F0E0F3
:1022A000EC52FD4FE491CE2FD0E007EE1CE081CF41
:1022B000853149F4F0E0EF52FD4FE491CE2FD0E0AC
:1022C0000EE71DE076CFC8EED3E005E01EE08831D2
:1022D00009F46FCF833239F4EFECF2E0C591D49179
:1022E00009E61BE066CFC4EFD1E000E41EE08432D3
:1022F00009F45FCFC0EDD7E00BED19E0853209F0AE
:1023000058CF8E2F63E00E94352EE92FF0E0E45382
:10231000FD4FE491CE2FD0E00DE71EE04ACFFA0149
:1023200081110994FB01FDCFCF93DF93C82FD62FE6
:102330000E94690A8C1740F00E94690A8D1720F4E8
:10234000DF91CF910C9420108C2FDF91CF910C94C2
:1023500031101F93CF93DF93EC01FB011281111118
:1023600010C00E9441248272FE01E25CFC45E4310F
:10237000F10508F05BC0EA54F04D0C94772E0E94F2
:102380003C10812FDF91CF911F9108954EE250E1D3
:1023900060E270E10E948F11F4CF40E250E16EE202
:1023A00070E1F8CF48E65CE06CE57CE0F3CF4CE50B
:1023B0005CE068E67CE0EECF46E85CE067E77CE066
:1023C000E9CF47E75CE066E87CE0E4CF44EA5CE024
:1023D00065E97CE0DFCF45E95CE064EA7CE0DACFE8
:1023E00044E95AE061E77AE0D5CF41E75AE064E991
:1023F0007AE0D0CF81E00E943110C3CF65E082E067
:102400000E949411BECF68E086E0FACF6EE089E0CA
:10241000F7CF64E18FE0F4CF67E185E1F1CF88E1A8
:10242000EACF62E289E1ECCF83E2E5CF11E0A9CF08
:102430009C01AB01539A6BB1677F7BB17860EFB7BA
:10244000F894CA01880F991F840F951F820F931F5C
:102450008217930741F4EFBF8FE594E00197F1F7FE
:1024600000C000000895D9014D919D0158E07BB94D
:10247000000000C047FF6BB9440F000000C000C05F
:1024800000C06BB900C05A9591F7E2CF82E290E0AC
:102490000E94092F803289F483E290E00E94092F84
:1024A000873059F484E290E00E94092F91E0843251
:1024B00009F090E0892F8170089580E0FCCFCF93E0
:1024C000C82F6FEF811160E282E290E00E941D2F21
:1024D0006FEFC11167E083E290E00E941D2F6FEF64
:1024E000C11164E284E290E0CF910C941D2F80E052
:1024F0000E945F120C94F3240895CF93DF9300D0D1
:1025000000D0CDB7DEB785E290E00E94092F282FDA
:1025100030E050E040E0CA01B9010F900F900F90F9
:102520000F90DF91CF91089585E290E00C941D2FDC
:102530000E947C120E94461281110CC060E070E083
:10254000CB010E9494120E94A6140E94931581E070
:102550000C945F120895CF939C01FB01C281CC23A0
:1025600001F182519F45409720F58EEE820F0E9427
:10257000A315C0E08C2FCF91089581E00E943B22EB
:1025800043E062E081E00E94F704F3CF81E00E9423
:102590006C2243E062E081E00E94F704EBCF82E02E
:1025A000F6CF80319F4591F321313F45C1F3C1E022
:1025B000E1CF2031EFE53E0701F382E021313F45D5
:1025C000E9F2D8CF2FEFFC0120830895CF93DF935A
:1025D000EC0188818238C1F038F4803871F081389C
:1025E00081F0DF91CF9108958338D9F70E94E40AF2
:1025F00089830E94E70A8A83F4CF0E94EA0A8983CA
:10260000F0CF0E94690AFBCF0E94B70AF8CFCF93A0
:10261000DF93EC018881823851F138F4803869F019
:102620008138B9F0DF91CF9108958338D9F70E94AE
:10263000EA0A482F6A81898108C0D9810E94E70A85
:10264000C82F0E94E40A4D2F6C2FDF91CF910C947C
:10265000A70C89810E9443108981811104C0DF91F8
:10266000CF910C945E0FDF91CF910C947E108981F5
:10267000DF91CF910C94E10AEF92FF920F931F9399
:10268000CF93DF93CDB7DEB72E970FB6F894DEBFAA
:102690000FBECDBF8D839E83162F8D819E81DC0161
:1026A000ED91CD01E150E33108F00BC1F0E0E653CC
:1026B000F04D0C94772EED81FE81118289E08283AA
:1026C000612F8D819E812E960FB6F894DEBF0FBECE
:1026D000CDBFDF91CF911F910F91FF90EF900C94A0
:1026E0006A27AD81BE8111968C91823099F083303A
:1026F00011F1813081F50E948A260E947D2E6F8320
:10270000788789879A87ED81FE81628373838483CA
:102710009583D6CF0E947D120E947D2E6B877C8789
:102720008D879E87AD81BE8112966D937D938D932B
:102730009C931597C5CFED80FE80B2E0EB0EF11CA7
:1027400000E0802F0E946707F70181937F010F5FF0
:102750000830B9F7B5CF612F8D819E810E94E212BA
:10276000AFCFAD81BE8111968C911197823099F7D0
:1027700012968D919D910D90BC91A02D89839A8385
:10278000AB83BC83BC01CD010E947D2E0E949412BC
:1027900097CFED81FE814381628181810E9478140F
:1027A000982789279827AD81BE8115969C938E9393
:1027B000149786CFED81FE8124813581322723272E
:1027C00032274381628181810E94911479CF0E94D6
:1027D000A61476CF0E94071373CF0E94E61270CF23
:1027E0000E94230A6DCF0E943C15AD81BE811196D7
:1027F0008C9366CF0E943E15982789279827ED81F4
:10280000FE81928381835CCFAD81BE8113966C91F2
:10281000139770E011968D919C911297AD014C5FCA
:102820005F4F9827892798270E94411549CFED814E
:10283000FE81638170E081819281AF014C5F5F4FC7
:102840009827892798270E9468153ACF0E949315E8
:1028500037CF0E946614C9CFED81FE81638170E09D
:1028600081819281AF014C5F5F4F9827892798271C
:102870000E94DF1425CFAD81BE8113966C91139712
:1028800070E011968D919C911297AD014C5F5F4F56
:102890009827892798270E94051512CF0E94771242
:1028A0000FCF8D819E810E946A27BFEFE1EEF4E099
:1028B000B150E040F040E1F700C000000E94DD268A
:1028C000FFCE8FEFAD81BE818C93FACE84E0089568
:1028D00050E0440F551F9CE0699F400D511D11248D
:1028E00090E6899F400D511D1124CA0186960895D6
:1028F0000F931F93CF93DF930E9468148C010E9463
:10290000092FC82FD0E0DC2FCC27C80101960E94E8
:10291000092F9E01282BC901DF91CF911F910F91A3
:1029200008950F931F93CF93DF93122F032F0E94CD
:102930006814EC01602F0E941D2F612FCE010196BB
:10294000DF91CF911F910F910C941D2FAF92BF92E9
:10295000CF92DF92FF920F931F93CF93DF93B12C0F
:10296000A12C00E0650110E013C0FE012591349117
:102970004F2D612F802F0E9491142296F39486E0B0
:10298000F812F3CF86E0C80ED11C1F5F183039F063
:10299000E601CC0FDD1FC455DF4FF12CE6CF0F5FF2
:1029A00080E3A80EB11C0430E9F6DF91CF911F91AE
:1029B0000F91FF90DF90CF90BF90AF900895EF926E
:1029C000FF920F931F93CF93DF93EC018A017C0159
:1029D000E60EF71ECE018696CE15DF0539F4DF919F
:1029E000CF911F910F91FF90EF900895C03821E093
:1029F000D20740F40E94092FF80180830F5F1F4F18
:102A00002196E8CFF8011082F9CFCF92DF92EF92B2
:102A1000FF920F931F93CF93DF938C016A017C0188
:102A2000E60EF71EEC01CE018696CE15DF0549F4C1
:102A3000DF91CF911F910F91FF90EF90DF90CF909A
:102A40000895C03821E0D20740F4FE01E01BF10BED
:102A5000EC0DFD1D60810E941D2F2196E4CF462FB5
:102A6000672F843030F4783020F4463010F40C9422
:102A7000781490E080E0089580E108958AE592E07E
:102A80000895EF92FF920F931F93CF93DF93EC0182
:102A90008A017C01E60EF71ECE018A559E4FCE15A7
:102AA000DF0539F4DF91CF911F910F91FF90EF90E7
:102AB0000895CA3522E0D20740F40E94092FF80198
:102AC00080830F5F1F4F2196E7CFF8011082F9CF67
:102AD000CF92DF92EF92FF920F931F93CF93DF93EA
:102AE0008C016A017C01E60EF71EEC01CE018A55CD
:102AF0009E4FCE15DF0549F4DF91CF911F910F91C5
:102B0000FF90EF90DF90CF900895CA3522E0D20772
:102B100040F4FE01E01BF10BEC0DFD1D60810E94F5
:102B20001D2F2196E3CFCF93DF93C6EAD1E060E07B
:102B3000CE010E941D2F2196C11584E0D807B9F758
:102B4000DF91CF910895DF92EF92FF920F931F9341
:102B5000CF93DF9300D000D0CDB7DEB7F82E8FE053
:102B60008F1540F08FEF93E00E94092F06EA11E0E5
:102B70008823C1F00F900F900F900F90DF91CF91AD
:102B80001F910F91FF90EF90DF900895011584E061
:102B9000180781F3C8010E94092F811101C0FA941E
:102BA0000F5F1F4FF110F2CF8091340190913501EA
:102BB000A0913601B091370189839A83AB83BC839E
:102BC000DD24D39478018FEFE81AF80AC8010E9437
:102BD000092F89831A82882369F29FEF980F933017
:102BE00080F48A83D9820E5F1F4FC7010E94092F8C
:102BF0008B83882309F4BECFCE0101960E94610425
:102C0000E1CF8701F9CF0F931F93CF93DF93C62FA7
:102C1000D42F022FFC0182818823C9F06093A50282
:102C20000E947E269093A4028093A30280E28C0FE0
:102C3000883008F050C0C77081E001C0880FCA9585
:102C4000EAF7DF91CF911F910F910C94711B1091B6
:102C5000A502161335C08091A3029091A4020E9490
:102C6000AA26883C910560F5C0E2CD0F1D17B9F08A
:102C700080E2810F883040F4177081E001C0880F36
:102C80001A95EAF70E94781BC83048F481E09D2F1E
:102C9000977001C0880F9A95EAF70E94711B802FE8
:102CA0000E945E1BC830B8F4D77081E001C0880F65
:102CB000DA95EAF7DF91CF911F910F910C94781B71
:102CC00080E28C0F883038F4C77081E001C0880F33
:102CD000CA95EAF7EFCFDF91CF911F910F91089539
:102CE0009C01CB01233F4CE5340769F190F4283D6A
:102CF000FCE53F0721F1293D4CE5340781F1273DF3
:102D00003C45B1F0FC018281882361F11092A5025B
:102D10000895253FFCE53F07D1F0263F4CE53407F9
:102D2000D1F0243F3C4571F727E245EE64EE03C045
:102D300026E241EE61EE0E94031680E0089527E24C
:102D400045EE65EEF8CF26E241EE60EEF4CF26E2E6
:102D500041EE62EEF0CF27E245EE66EEECCF28E2E0
:102D600041E0EFCF81E00895CF93DF93EC01FB01C9
:102D70008281882309F4C9C0C631FCE5DF07E0F48D
:102D8000C2309CE5D907F0F00E9411259093F00322
:102D90008093EF03C631ECE5DE0720F5C230FCE599
:102DA000DF0798F48091EF039091F0030E941F25B4
:102DB0000E94F81D80E006C09E012A5F3C45293034
:102DC000310510F3DF91CF910895FE01E350FC45EA
:102DD0008091EF038160E331F10588F4E352F04D17
:102DE0000C94772ECA5FDC45C930D105D8F6C051A6
:102DF000D04DFE010C94772E8091EF03826080937A
:102E0000EF03D0CF8091EF038460F9CF8091EF037F
:102E10008860F5CF8091F00381608093F003C2CF8A
:102E20008091F0038260F9CF8091EF038061E7CF5A
:102E30008091EF038062E3CF8091EF038064DFCF66
:102E40000E94F81D8091EF038068D9CF8091EF0335
:102E50008C60D5CF8091F0038360DFCF8091EF034A
:102E60008E7FCDCF8091EF038D7FC9CF8091EF030F
:102E70008B7FC5CF8091EF03877FC1CF8091F00317
:102E80008E7FCBCF8091F0038D7FC7CF8091EF03F2
:102E90008F7EB5CF8091EF038F7DB1CF8091EF030F
:102EA0008F7BADCF0E94F81D8091EF038F77A7CF66
:102EB0008091EF03837FA3CF8091F0038C7FADCF10
:102EC0008091EF0382FB992790F921E0922790FBF4
:102ED00082F990FB83F993CF8091F003982F90951E
:102EE00091708E7F892B90FB81F997CF0E94F81DFE
:102EF0009091EF03892F97FB87F9805880CF81E06D
:102F00000E949D254FCF80E0FBCF81E05BCFCF9328
:102F1000DF93EB0186319C4511F50E9441249A8193
:102F2000992399F08A7A91E009F490E09093A602AF
:102F3000811109C089E20E941C240E94902480E033
:102F4000DF91CF91089585E3F6CF8091A60281119C
:102F500004C089E20E942324F0CF85E3FBCF81E007
:102F6000EFCF8EE14A9B02C08150E1F74A9BFECF32
:102F700008955A9880E28A95F1F75A9A0895FC01CB
:102F80003BE03A95F1F720E090E080E031E040E16D
:102F90004A95F1F7880F4A9B02C08160232742E0DF
:102FA0004A95F1F7000040E14A95F1F79F5F6913F8
:102FB000EECF90E19A95F1F799B132E03A95F1F7B9
:102FC000000040E14A95F1F792FB992790F992278A
:102FD0002081920F90830895EF92FF920F931F9399
:102FE000CF93DF930F92CDB7DEB719828C017C01AE
:102FF000E60EF11C0E151F0561F481E09981911117
:1030000080E00F90DF91CF911F910F91FF90EF9093
:1030100008950E94B11768E0CE0101960E94BF1783
:10302000F80181938F01E6CF9093A9028093A802C3
:103030006093A702529A5A9A08959093A902809396
:10304000A8026093A70252985A9AEA9AE9E6F0E039
:1030500080818F7C808308956150770B91E001C05F
:10306000990F6A95EAF720E031E0911108C0222318
:1030700091F05A9A80E28A95F1F75A980895492F6B
:10308000482339F05A9A232740E24A95F1F796955A
:10309000ECCF5A98F9CF5A98EDCFFF920F931F9328
:1030A000CF93DF93EC018C01060F111DC017D107E0
:1030B00031F4DF91CF911F910F91FF900895F99016
:1030C0000E94B91768E08F2D0E942C18EFCF1F9235
:1030D0000F920FB60F9211240F931F932F933F93CC
:1030E0004F935F936F937F938F939F93AF93BF9310
:1030F000EF93FF93CF93DF930F92CDB7DEB7198293
:103100000E94B11767E0CE0101960E94BF17082FF9
:10311000069506950695982F92959570202F257007
:10312000920F292F2370969596958770920F891389
:1031300044C08981811141C08091A7028017E8F1C4
:1031400020E12A95F1F75A9A529A82E08A95F1F78E
:1031500000C0A8E00A9FC00111240091A8021091AC
:10316000A902080F191F5A98F8016581662321F0FA
:10317000868197810E944D180E94B917F0E1FA9557
:10318000F1F75A9852985A9A20E12A95F1F7D80106
:1031900012966C911297662331F113968D919C9142
:1031A0000E94EC17D801ED91FC91882311F088E082
:1031B00001C082E080830E94B1170F90DF91CF9110
:1031C000FF91EF91BF91AF919F918F917F916F91FF
:1031D0005F914F913F912F911F910F910F900FBED3
:1031E0000F901F901895ED91FC91E1CF0F931F93D5
:1031F000CF93DF939C018091A702821713060CF4F2
:1032000071C0890183E0000F111F8A95E1F7C09119
:10321000A802D091A902C00FD11FF894529A5A98CF
:1032200085E08A95F1F70000922F969595702570AC
:10323000920F892F837096959695980F092B0E946F
:10324000B91700C067E0802F0E942C1880E18A9592
:10325000F1F752985A9A4A9B17C087E090E04A9932
:1032600015C06D81662321F18E819F810E94EC172C
:1032700081111EC0529A5A9AE881F98182E08083B6
:10328000789482E090E00DC000C0E5CF019771F422
:10329000529A5A9AE881F98181E08083789481E09A
:1032A00090E0DF91CF911F910F91089500C0D7CF8B
:1032B0000E94B11780E28A95F1F75A98529A80E1FC
:1032C0008A95F1F76A81662321F08B819C810E94A7
:1032D0004D180E94B917E881F9811082789490E026
:1032E00080E0DFCF84E090E0DCCF9093AF0280936A
:1032F000AE020895E091AE02F091AF02309721F056
:103300000190F081E02D099480E00895E091AE02F3
:10331000F091AF02309721F00280F381E02D099403
:1033200008952091AC023091AD022817390771F051
:103330009093AD028093AC02E091AE02F091AF02A7
:10334000309721F00680F781E02D099408952091AF
:10335000AA023091AB022817390771F09093AB02A3
:103360008093AA02E091AE02F091AF02309721F073
:103370000084F185E02D0994089585B7806885BFA4
:1033800085B7806885BF0895089508950C94C41981
:1033900008950C94C8190E94BD190E94C5190C9477
:1033A000C6190C94AF080E9475260E9473070E94EC
:1033B00098120E9404270E9446100C94C919BF92CB
:1033C000CF92DF92EF92FF920F931F93CF93DF93F1
:1033D00000D000D00F92CDB7DEB70E94F5070E9453
:1033E000D119882309F45DC081EBC82E82E0D82E64
:1033F00010E000E0B02E802F0E946707F82EF60143
:10340000E1906F01E81609F446C08091250381FD23
:103410000E946D079E2D9F2580E0EE24E394292FC6
:103420002E21A9F18983BA82FE2081E009F480E08F
:103430008B830E947E268160782F9D838C834981B7
:103440005A816B818D810E94711AF801EF54FD4FF2
:103450008081E826E0820E94BB100E947A19909138
:10346000B002891779F10E947A198093B0020F9007
:103470000F900F900F900F90DF91CF911F910F91B0
:10348000FF90EF90DF90CF90BF900C942E058F5F50
:10349000EE0C863021F60F5F1F4F0830110509F042
:1034A000A9CF8FEF89838A831B820E947E26816049
:1034B000782F9D838C8349815A816B818D810E94F5
:1034C000711AC9CF0F900F900F900F900F90DF914E
:1034D000CF911F910F91FF90EF90DF90CF90BF9011
:1034E0000895CF93DF93CDB7DEB72B970FB6F8943F
:1034F000DEBF0FBECDBF4F83588769877A878B8722
:103500001E8285E0FE013796DE01119601900D9234
:103510008A95E1F749815A816B817C818D819E81F9
:103520002B960FB6F894DEBF0FBECDBFDF91CF91C3
:103530000C945B20FC01808191810C94E623CF9355
:10354000C82F882309F469C08238C1F40E947A190F
:1035500081FD63C089E30E941C240E9490242FEF08
:1035600081EE94E0215080409040E1F700C00000DF
:1035700089E30E942324CF910C9490248338A1F4F2
:103580000E947A1980FD49C083E50E941C240E9494
:1035900090242FEF81EE94E0215080409040E1F79D
:1035A00000C0000083E5E5CF8438A1F40E947A19B9
:1035B00082FD33C087E40E941C240E9490242FEFD8
:1035C00081EE94E0215080409040E1F700C000007F
:1035D00087E4CFCF8CEF8C0F813A90F46C2F8091E1
:1035E0002701909128010E94B425882329F08C2F6F
:1035F0000E9423240E9490248C2F0E941C24BBCF65
:1036000080E28C0F883048F4C77081E001C0880FD9
:10361000CA95EAF70E944424AECFCF91089588233B
:1036200009F44BC0823871F40E947A1981FF45C0B9
:1036300089E30E941C240E94902489E30E94232491
:103640000C949024833859F40E947A1980FF35C075
:1036500083E50E941C240E94902483E5EFCF8438E8
:1036600059F40E947A1982FF28C087E40E941C2422
:103670000E94902487E4E2CF9CEF980F913AF0F2F9
:1036800090E2980F983050F4877091E001C0990F44
:103690008A95EAF7892F0E944A24D2CF9BE5980F9A
:1036A000933020F490E080E00C949119885A87318F
:1036B00020F490E080E00C94A7190895CF93C82FD0
:1036C0000E949F1AC93349F42FEF87EE93E02150EF
:1036D00080409040E1F700C000008C2FCF910C9407
:1036E0000F1B882321F00E9444240C9490240895F9
:1036F000882321F00E944A240C9490240895AF92CC
:10370000BF92CF92DF92EF92FF920F931F93CF93CE
:10371000DF9300D000D00F92CDB7DEB76C016D8380
:103720007983FC01158112951F70028101110E949D
:1037300063240E943A24E82E882391F00023D1F0DC
:103740008981807F803421F08D81805E883090F087
:1037500082E00E94DB240E943A2491E0E82EE926D0
:10376000A980A2949FE0A922B12CF501E750F04D69
:103770000C94772EE12CF4CF19811F70F981F07F22
:1037800011F01295107F0023B1F0112361F08D81AB
:10379000805E883018F02D81211109C0812F0E9490
:1037A00044240E9490248D810E949F1A15C0812F6D
:1037B0000E945524F6CF8D810E940F1B112361F0CA
:1037C0008D81805E883018F04D81411133C0812F8A
:1037D0000E944A240E94902458E0A51AB10864E08F
:1037E000A616B10420F40E947A190E942E05EE203C
:1037F00009F4A5C10E94362480FDA1C1F601128200
:103800000E9430240E943B22C6010E94C61D0E94D5
:1038100030240F900F900F900F900F90DF91CF9169
:103820001F910F91FF90EF90DF90CF90BF90AF90DE
:103830000C946C22812F0E945B24CCCF59815F7045
:10384000F52E6981607F603219F0F29480EFF822E2
:103850007D81772369F0713049F1002391F11123C3
:1038600051F1F601858180FF9ECF8F70858323C043
:10387000002381F0111106C00E9477248F290E9435
:10388000711BAACF1130C1F70E9477248F290E94A3
:103890007D24A2CF111106C00E9486248F2D0E9484
:1038A000781B9ACF113009F497CFF6CF002329F077
:1038B000163008F091CF8F2DE2CF153008F08CCF65
:1038C000EDCF112359F3FD81F93349F42FEF47EE82
:1038D00053E0215040405040E1F700C000008D818E
:1038E0000E940F1B79CF8981837009F050C00111AC
:1038F00073CF4D81429546954770440F440F8D819B
:103900008F7090E0B0E0A0E0042E04C0880F991FF3
:10391000AA1FBB1F0A94D2F76D8100E010E0980146
:1039200064FF0FC00FE010E020E030E004C0000FA3
:10393000111F221F331F4A95D2F70095109520952D
:10394000309579817695769573707D83B901A8015C
:10395000482B592B6A2B7B2B49835A836B837C839F
:103960005D8169817A818B819C81523051F0533025
:1039700059F0513019F00E94B1212ECF0E948921B7
:103980002BCF0E94D92128CF0E94872125CF869551
:10399000002311F089818170882309F41DCF4D81A6
:1039A000429546954770440F440F8D818F7090E08B
:1039B000B0E0A0E0042E04C0880F991FAA1FBB1F0F
:1039C0000A94D2F76D8100E010E0980164FF0FC007
:1039D0000FE010E020E030E004C0000F111F221FB4
:1039E000331F4A95D2F7009510952095309579812F
:1039F0007695769573707D83B901A801482B592B74
:103A00006A2B7B2B49835A836B837C835D8169811D
:103A10007A818B819C81523051F0533059F0513072
:103A200019F00E94FA22D8CE0E94D222D5CE0E944E
:103A30002223D2CE0E940522CFCE69816F70698386
:103A4000002329F0862F0E943B228D8118CF8D8183
:103A50000E94781B89810E946C22BECE7D81723FBC
:103A6000A1F160F4703FE1F0713F41F1002309F4EE
:103A700045C0111198CE89818F7124C08D81833FFB
:103A800049F1843F99F7002379F199819F719983D6
:103A9000892F0E943B2263E089810E94C6249CCE2C
:103AA000002341F0153008F097CE89818F710E9474
:103AB000A12292CE163008F08FCEF7CF89818F7178
:103AC000002349F20E943B2287CE89818F71002317
:103AD000C9F3C1CF002329F089818F710E9416227A
:103AE0007BCE0E94112278CE81E00E94DB2412302E
:103AF00008F472CE82E00E94DB246ECE112361F0C6
:103B0000ED81E93309F0EBCEFFEF27EE43E0F15012
:103B100020404040E1F7E1CE89818F719CCF4981FF
:103B20004F706D81C6010E948E050E94FB2054CE0D
:103B300049814F706D81C6010E9491054DCE0F9055
:103B40000F900F900F900F90DF91CF911F910F91D9
:103B5000FF90EF90DF90CF90BF90AF9008950F93BC
:103B60001F93CF93DF93EC01688179818A810E9452
:103B7000F2238C010E944A230E948621B801CE01C3
:103B8000DF91CF911F910F910C947F1BCF93DF9307
:103B9000EC018B819C81892B29F088819981892373
:103BA0008F3F59F4DF91CF910895CE010E94AF1D50
:103BB000CE01DF91CF910C94A003CE010E94460567
:103BC0008111F3CF0E943A24882361F38A818823EC
:103BD00049F382E0DF91CF910C94DB240E946324AF
:103BE0000E9474240C9490240E942A240C94EE1DAC
:103BF0000E9452240C94F41D282F892F82958F70D7
:103C0000903C80F48A30B0F4843020F4823090F418
:103C100080E008958630E1F781E0283E88F0213F7A
:103C2000B9F70EC08C3011F08F3091F793FB8827D5
:103C300080F9089581E0203F39F018F4283E40F7DC
:103C40000895243F29F7FCCF08950E94E6230C94A1
:103C5000FC1DCF93DF9300D000D00F92CDB7DEB71D
:103C60000F900F900F900F900F90DF91CF910895CC
:103C7000CF93DF9300D000D000D0CDB7DEB726962B
:103C80000FB6F894DEBF0FBECDBFDF91CF91089580
:103C90001F93CF93DF93E091BA0216E08091BB02AD
:103CA0008E1304C0DF91CF911F910895CE2FD0E0E5
:103CB0001E9FF0011124E454FD4F40815181628127
:103CC0007381848195810E94381EFE013196E770D0
:103CD000E5CF4091EC025091ED026091EE027091BF
:103CE000EF028091F0029091F1020C94381E1F9324
:103CF000CF93DF938091F102807FA9F48091EE024F
:103D0000882389F08091BA02C091BB026091EC02D5
:103D10007091ED02A091EF02B091F002D62FD7235F
:103D200016E0C81304C0DF91CF911F91089590E071
:103D3000109711F0DF3F19F401968770F2CF189FAA
:103D40009001199F300D1124F901E454FD4F418178
:103D50004713F2CF40814613EFCF42814111ECCFA0
:103D6000438154814A1B5B0B483C510528F78091E5
:103D7000F1028F7080618093F102F901EF53FD4FE2
:103D800080818F70806180838CEE92E00E94C61DDE
:103D9000DF91CF911F910C94481EAF92BF92CF92AA
:103DA000DF92EF92FF920F931F93CF93DF93CDB7E4
:103DB000DEB72B970FB6F894DEBF0FBECDBF8C01D8
:103DC00085E0F801DE01179601900D928A95E1F7E2
:103DD000F80140815181E2808CEEC82E82E0D82E1D
:103DE0006091EF027091F0026115710509F444C110
:103DF0009091EC022091ED02822F89238F3F09F4EC
:103E00003BC1A380B480F090EE02F501E61BF70BF6
:103E1000FF2009F4E0C08091F102382F307FE83CA8
:103E2000F10508F0B2C0311179C0FE2C251323C072
:103E3000941321C0E1101FC08F7080618093F10244
:103E40000E94691EC6010E94C61D8091F102F80100
:103E500085838F2D2B960FB6F894DEBF0FBECDBF96
:103E6000DF91CF911F910F91FF90EF90DF90CF9056
:103E7000BF90AF900895AB2829F0842F85238F3F02
:103E800009F016C180E0F82FF170DF2EE091BA0240
:103E90002091BB0236E080FD1CC0EE20D1F2809163
:103EA000F10281608093F102F12CD3CF8E2F90E04C
:103EB0003E9FF0011124E454FD4F6181651306C05B
:103EC0006081641303C06281E612E7CFFC01319682
:103ED000E770E213EBCF4F8358878F8198850E945C
:103EE000E623292F22952F70903260F0225F2F70E9
:103EF000223078F49F7051F0F8019581907F31F471
:103F0000D12C0AC09F7011F08823D1F3805E8830D5
:103F1000B8F3C8010E94C61DFD2C9BCF251306C017
:103F2000941304C0F801EE2009F470C04F83588741
:103F30008F8198850E94251E882319F1EE2009F1B2
:103F40008091F102803270F02091EC023091ED020C
:103F50003A8329831B82BD82AC828E83CE01019677
:103F60000E94C61D86E0F801ACEEB2E001900D9211
:103F70008A95E1F70E94771E0E94691EFF24F39440
:103F800068CFC8010E94C61DF9CF311113C07A2D28
:103F9000BB86AA866E2D8B850E94291E8CEE92E030
:103FA0000E94C61D86E0F60111928A95E9F70E94EB
:103FB000691E7ACF2513BACF9413B8CFE110B6CFCC
:103FC000F8018583C8010E94C61D86E0F6011192A2
:103FD0008A95E9F73ECFE83CF10508F040C0FE2C99
:103FE000EE2079F225132AC0941328C08091F102A3
:103FF00080FD1BC0982F907FC1F0F8018583903F12
:1040000031F0982F907F905F8F70892B8583C80146
:104010000E94C61D86E0F801ACEEB2E001900D9260
:104020008A95E1F70E94691E14CF86E0F801ACEE94
:10403000B2E001900D928A95E1F70BCF4F8358873C
:104040008F8198850E94251E81118CCF8091F1026D
:1040500081608093F102C8010E94C61DFACE7A2DBC
:10406000BB86AA866E2D8B850E94291E86E0F601EE
:1040700011928A95E9F7D6CFEE2009F482CF4F83CB
:1040800058878F8198850E94251EF82E882309F471
:1040900078CF86E0F801ACEEB2E001900D928A95FF
:1040A000E1F78CEE92E00E949A1A0E94771EBACF36
:1040B00081E08E25E8CE1F93CF93DF93CDB7DEB797
:1040C0002C970FB6F894DEBF0FBECDBF4F83588735
:1040D00069877A878B879C87CE0107960E94CD1EC1
:1040E000882369F08A859B85892B39F04F81588513
:1040F000842F85238F3F09F077C016E065C086E0E6
:10410000FE013796DE01119601900D928A95E1F736
:104110006A857B856115710581F35F814885842FF0
:1041200085238F3F51F32091BB0230E0C9010196F6
:1041300087709927E091BA02E817190671F40E9476
:10414000F81D1092BB021092BA0286E0ECEEF2E08B
:10415000DF011D928A95E9F7D0CF59834A837D8389
:104160006C8396E0929FD001939FB00D1124A454CC
:10417000BD4FFE01319601900D929A95E1F7809323
:10418000BB020E94481EB9CF819FC00111248454F4
:104190009D4F0E94CD1E8823E9F0E091BA021E9F38
:1041A000F0011124E454FD4F4081518162817381FB
:1041B000848195810E94381E8091BA0290E0019618
:1041C000877099278093BA028091BA029091BB02BE
:1041D0008913DACF2C960FB6F894DEBF0FBECDBF91
:1041E000DF91CF911F91089569857A858B859C8594
:1041F0000E94381E82CFEF92FF920F931F93CF93AE
:10420000DF938C01892B89F0F12CEE24E394E801F3
:104210002196F8018491843709F457C0A0F48230C4
:1042200009F43EC048F48130D1F0DF91CF911F9165
:104230000F91FF90EF9008959CEF980F9037A8F79B
:104240000E949F1A0AC0853709F44CC09CE7980F5A
:10425000903758F78F770E940F1B8E0116C00E5FA4
:104260001F4FFE01849190E2980F983060F48770A0
:10427000FE2D01C0FF0F8A95EAF78F2F0E9466245A
:104280000E94902402C00E949F1A8F2D815008F432
:10429000BECFEFE9FFE03197F1F700C00000F6CFA5
:1042A0000E5F1F4FFE01849190E2980F983050F4FA
:1042B0008770FE2D01C0FF0F8A95EAF78F2F0E94AD
:1042C0006C24DECF0E940F1BE0CF0E5F1F4FFE015C
:1042D000C491C150D0F28FE99FE00197F1F700C07F
:1042E0000000F7CF0E5F1F4FFE01F490CECF089570
:1042F0000C9477210E947821609314037093150326
:1043000080931603909317030C94EE1D08950C945C
:104310007A21CF93DF9300D000D0CDB7DEB7698389
:104320007A838B839C838091140390911503A091D1
:104330001603B091170329813A814B815C81282BA8
:10434000392B4A2B5B2B29833A834B835C83CA012D
:10435000B9010F900F900F900F90DF91CF910C94B7
:104360007A21CF93DF9300D000D0CDB7DEB7698339
:104370007A838B839C838091140390911503A09181
:104380001603B091170329813A814B815C81282360
:1043900039234A235B2329833A834B835C83CA01F5
:1043A000B9010F900F900F900F90DF91CF910C9467
:1043B0007A21CF93DF9300D000D0CDB7DEB76983E9
:1043C0007A838B839C838091140390911503A09131
:1043D0001603B091170329813A814B815C8128270C
:1043E00039274A275B2729833A834B835C83CA0199
:1043F000B9010F900F900F900F90DF91CF910C9417
:104400007A210C9477210C9401220E94032260935C
:1044100010037093110380931203909313030C9471
:10442000EE1D60E070E0CB010C9405220F931F930A
:10443000CF93DF9300D000D0CDB7DEB741E050E09E
:1044400060E070E08A019B0104C0000F111F221F71
:10445000331F8A95D2F709831A832B833C83C901C2
:10446000B8010F900F900F900F90DF91CF911F9197
:104470000F910C9405220F931F93CF93DF9300D0DD
:1044800000D0CDB7DEB741E050E060E070E004C09E
:10449000440F551F661F771F8A95D2F7809110032E
:1044A00090911103A0911203B09113038A019B0113
:1044B000082B192B2A2B3B2B09831A832B833C8334
:1044C000C901B8010F900F900F900F90DF91CF911D
:1044D0001F910F910C9405220F931F93CF93DF939D
:1044E00000D000D0CDB7DEB741E050E060E070E032
:1044F00004C0440F551F661F771F8A95D2F7409559
:104500005095609570958091100390911103A09142
:104510001203B09113038A019B01082319232A2354
:104520003B2309831A832B833C83C901B8010F9075
:104530000F900F900F90DF91CF911F910F910C94DE
:1045400005220F931F93CF93DF9300D000D0CDB7F8
:10455000DEB741E050E060E070E004C0440F551F5A
:10456000661F771F8A95D2F78091100390911103EF
:10457000A0911203B09113038A019B010827192708
:104580002A273B2709831A832B833C83C901B8015F
:104590000F900F900F900F90DF91CF911F910F917F
:1045A0000C940522CF93DF9300D000D0CDB7DEB7B7
:1045B00069837A838B839C8380911003909111038C
:1045C000A0911203B091130329813A814B815C8140
:1045D000282B392B4A2B5B2B29833A834B835C8313
:1045E000CA01B9010F900F900F900F90DF91CF91FA
:1045F0000C940522CF93DF9300D000D0CDB7DEB767
:1046000069837A838B839C8380911003909111033B
:10461000A0911203B091130329813A814B815C81EF
:10462000282339234A235B2329833A834B835C83E2
:10463000CA01B9010F900F900F900F90DF91CF91A9
:104640000C940522CF93DF9300D000D0CDB7DEB716
:1046500069837A838B839C838091100390911103EB
:10466000A0911203B091130329813A814B815C819F
:10467000282739274A275B2729833A834B835C8382
:10468000CA01B9010F900F900F900F90DF91CF9159
:104690000C9405220895292F220FE22FE90FEE0F27
:1046A000E80F8E2F877041E001C0440F8A95EAF72A
:1046B000E695E695E69585E0E89FF0011124EE5039
:1046C000FD4F30E020E070E05191DF011197CB0108
:1046D000022E02C0969587950A94E2F78170819523
:1046E0008527842385278C932F5F3F4F2530310505
:1046F00059F70895292F220FE22FE90FEE0FE80F47
:104700009E2F9770E695E695E69585E0E89FF00187
:104710001124EE50FD4F50E040E080E0219130E068
:10472000092E02C0369527950A94E2F721703327A7
:10473000042E01C0220F0A94EAF7822B4F5F5F4FCD
:104740004530510559F70895BF92CF92DF92EF920D
:10475000FF920F931F93CF93DF938C01C0901003B0
:10476000D0901103E0901203F09013038091140392
:1047700090911503A0911603B0911703C82AD92A66
:10478000EA2AFB2ACFE1D0E0BC2ED701C6010C2ECD
:1047900004C0B695A795979587950A94D2F780FDA2
:1047A0000EC0219788F7B12C8B2DDF91CF911F91EF
:1047B0000F91FF90EF90DF90CF90BF900895B801D8
:1047C0008C2F0E949A05019761F3EECFCF93DF9370
:1047D000D82FC92F0E94A4236D2F7C2FDF91CF915A
:1047E0000C949A051F93CF93DF93162FD72F909198
:1047F000B902992339F0862F972FDF91CF911F911E
:104800000C94E623882391F0862F972F0E94A423EF
:10481000C82F682F812F9D2F0E944B23612F7D2F42
:104820008C2FDF91CF911F910C949A05862F972F93
:104830000E947A23C82FF2CF682F80912701909190
:1048400028010C94EE25682F809127019091280172
:104850000C94F02580912701909128010C94F22569
:104860008091180385958595859508958091180305
:104870008770089590911803977081E009F480E0A3
:10488000089580912403089590912403982B909388
:1048900024030895982F9095809124038923809371
:1048A0002403089510922403089590912303982BD4
:1048B000909323030895982F909580912303892343
:1048C0008093230308951092230308959091220367
:1048D000982B909322030895982F9095809122030E
:1048E00089238093220308951092220308958091D2
:1048F0001903089508950C947A2490911903981738
:1049000021F0809319030C947B240895809119035E
:10491000882329F01092190380E00C947B240895D9
:10492000E0912701F0912801809124038083E09198
:104930002701F0912801808190912303892B8083A6
:10494000E0912701F0912801808190912203892B29
:10495000808390911903992381F0E0912701F091D0
:1049600028018081892B80838091270190912801E3
:104970000E94A22581110E94862480912701909196
:1049800028010C94861908950C94C32498E0899FFB
:1049900090011124622B609318030E943B228091A6
:1049A00018038595859585950C94C4241092180359
:1049B00080E00C94C42490911803809589238093FF
:1049C0001803282F277071F4282F082E000C330BA2
:1049D0009217130639F08595859585950E946C226E
:1049E0000C94D62408956FEF7FEF90E080E00C9454
:1049F0003B2F90E080E00E94172F9C0181E02C3E2D
:104A00003E4F09F080E0089582E090E00C94092F79
:104A100083E090E00C94092F682F83E090E00C94E1
:104A20001D2FCF9384E090E00E94092FC82F81E2D0
:104A300090E00E94092F982F8C2FCF910895CF934B
:104A4000682FC92F84E090E00E941D2F6C2F81E217
:104A500090E0CF910C941D2FAB01BC018FE090E052
:104A60000C942F2FAB01BC0183E190E00C942F2F0D
:104A700060E070E0CB010C94322560E070E0CB0187
:104A80000E942C250C9438256CEE7EEF90E080E09F
:104A90000E943B2F60E082E090E00E941D2F60E0CA
:104AA00083E090E00E941D2F1092140310921503D2
:104AB000109216031092170360E084E090E00E94C9
:104AC0001D2F60E081E290E00E941D2F60E085E0F4
:104AD00090E00E941D2F60E086E090E00E941D2F74
:104AE0006FEF87E090E00E941D2F40E050E0BA0198
:104AF00088E090E00E942F2F60E08DE090E00E941F
:104B00001D2F40E050E0BA0188E190E00E942F2F75
:104B100060E087E190E00E941D2F40E050E0BA0184
:104B20008CE190E00E942F2F60E080E290E00E94F4
:104B30001D2F0C943D250C944425682F8EE090E0A9
:104B40000C941D2FAC019C012E5F3F4F485F5F4FBF
:104B500080E02417350709F40895F90191919F0128
:104B60009923B9F38F5FF5CF9C01662351F0FC01C7
:104B70003296285F3F4F8191861729F0E217F3079D
:104B8000D1F780E0089581E008959C01FC01329600
:104B90008FEF90E04191461751F08F3F19F441118A
:104BA00001C0892F9F5F9630A9F78F3F09F40895C0
:104BB000280F311D87FD3A95F901628308959C0104
:104BC000FC013296285F3F4F8191861303C0DF01BD
:104BD00011971C92E217F307B9F708950C94C525B5
:104BE0000C94DF25FC01329686E0DF011D928A9548
:104BF000E9F70895089508950C94FB250E94FC257B
:104C00008091F503843049F11092260388E190E009
:104C100020E40FB6F894A895809360000FBE20930F
:104C2000600080E00E942E050E94FC2583B7817FF2
:104C3000846083BF83B7816083BF7894889583B78E
:104C40008E7F83BF0FB6F894A8958091600088612D
:104C500080936000109260000FBE08950895CF9376
:104C60000E94FA250E94F5070E942E26C0E08C2F94
:104C70000E946707811105C0CF5FC830C1F7CF918F
:104C8000089581E0FCCF08950C9443260E94F81DFE
:104C90000E947A190E942E050C9444261F921FB67A
:104CA0001F9211248F939F93AF93BF9380912603FC
:104CB000811113C08091EB039091EC03A091ED035F
:104CC000B091EE034196A11DB11D8093EB0390932B
:104CD000EC03A093ED03B093EE03BF91AF919F91CE
:104CE0008F911F901FBE1F90189582E084BD93E0A6
:104CF00095BD9AEF97BD80936E0008952FB7F894F5
:104D00008091EB039091EC03A091ED03B091EE0341
:104D10002FBF0895CF93DF9300D000D0CDB7DEB77B
:104D20008FB7F8942091EB033091EC034091ED03A1
:104D30005091EE0329833A834B835C838FBF698153
:104D40007A818B819C810F900F900F900F90DF9153
:104D5000CF9108959C014FB7F8948091EB03909107
:104D6000EC03A091ED03B091EE034FBF821B930BB8
:104D7000089578941F921FB61F9211248F939F93CA
:104D8000AF93BF938091EB039091EC03A091ED035F
:104D9000B091EE030196A11DB11D8093EB0390939A
:104DA000EC03A093ED03B093EE03BF91AF919F91FD
:104DB0008F911F901FBE1F90189587E797E79093DC
:104DC00001088093000888E19AE00FB6F894A8954E
:104DD000809360000FBE90936000FFCF0C94771219
:104DE0000E94F5078FE39CE90197F1F700C00000EE
:104DF0000E94F50780E00E94670780FF04C00E94C0
:104E0000EE260C94DD260895CF93DF9300D000D0DA
:104E1000CDB7DEB70E94F924811102C00E949B2504
:104E20000E940425809325030E9411259093F0038E
:104E30008093EF030E940825282F30E050E040E0E7
:104E400029833A834B835C83CA01B9010F900F9089
:104E50000F900F90DF91CF910C94872180912F03B9
:104E6000089508950895CF93DF93D82FC92F0E94F6
:104E70004129823011F0843049F581E08093E900C6
:104E80008FEF9091E800815095FD06C095ED9A95C1
:104E9000F1F700008111F5CF8091E80085FF16C081
:104EA00050E040E068E070E08D2F9C2F0E945E296A
:104EB0008091E8008E778093E80088E0ED2FFC2F4A
:104EC000A7E2B3E001900D928A95E1F7DF91CF91CF
:104ED00008950895CF93603219F52091F503243099
:104EE000F9F4C091E900CF703091EC00232F2170CC
:104EF00030FD20E8C22B22E02093E9002091E80059
:104F000020FF0BC050E040E060E270E00E945E29AC
:104F10008091E8008E778093E800CF70C093E9001D
:104F2000CF9108958091F403811109C00E94352B1F
:104F30000E94922B8091E20084608093E2000895A9
:104F40001092F4030895089508950C94462642E0C3
:104F500061EC81E00E94B12A42E261EC82E00E94B1
:104F6000B12A42E260EC83E00C94B12A8091F7030D
:104F7000893089F148F4823009F49DC0833009F406
:104F800058C0813041F008958A3009F484C08B30D4
:104F900009F46AC008958091F603813A09F048C087
:104FA0008091E800877F8093E8008091FA039091D8
:104FB000FB03892B61F468E087E293E070E00E94D4
:104FC000FC298091E8008B778093E800089560E0E9
:104FD00090E080E0F3CF8091F603813249F5809133
:104FE000FA039091FB03892B19F58091E800877FE4
:104FF0008093E8008091E80082FF16C09091F30052
:105000008091F200029729F48091F1008B7F81302A
:1050100021F48091F10080932F038091E8008B7739
:105020008093E8000C94E52A8091F5038111E2CF8A
:1050300008958091F603813AD9F78091FA0390910F
:10504000FB03892BA9F78091E800877F8093E80014
:105050008091E80080FFFCCF809133018093F100C4
:105060008091E8008E77DCCF8091F603813201F7E2
:105070008091FA039091FB03892BD1F68091E8008F
:10508000877F8093E8000E94E52A8091F80380934F
:1050900033010C94F81D8091F603813249F680911A
:1050A000E800877F8093E8000E94E52A8091F90359
:1050B0008093300308958091F603813A09F0B8CFC8
:1050C0008091E800877F8093E8008091E80080FF6E
:1050D000FCCF80913003C2CFCDB7DEB7A0970FB61B
:1050E000F894DEBF0FBECDBF84B7877F84BF0FB6F5
:1050F000F894A89580916000886180936000109278
:1051000060000FBE80E890E00FB6F89480936100D5
:10511000909361000FBE0E94CB190E94352B0E9414
:10512000922B8091E20084608093E20078940E9448
:105130001A2E0E94D31989E291E00E94751913E09A
:105140008091F503853039F10E94DF198091F503D4
:105150008430B1F71093E9008091E80082FFF0CF2E
:105160008091E80090E085FF09C050E040E060E2F7
:1051700070E0CE0101960E94AD2991E08091E80097
:105180008B778093E8009923D9F260E2CE010196F3
:105190000E943C13D5CF0E94FE258091F303882303
:1051A00079F20E942F26882359F20E944829C8CFFD
:1051B0000C94DA28FC01DA018F2F992783309105AE
:1051C000C9F068F48130910509F444C0029769F48C
:1051D00082E490E020E235E02D933C930895813203
:1051E000910521F18232910561F190E080E030E09B
:1051F00020E0F2CFCF019927E230A9F0833091056A
:1052000050F4009769F0E4E0F5E0019771F78491BC
:1052100090E09F01E1CFE6EEF4E00397C1F3E5CF24
:10522000ECE1F5E0F4CFECEEF4E0F1CF61157105BF
:10523000B1F061307105C9F689E090E02BE435E00A
:10524000CBCF6115710581F06130710571F624E7EE
:1052500035E0C2CF82E190E022E635E0BDCF89E0C3
:1052600090E022E335E0B8CF80E490E026E935E035
:10527000B3CF8091F503843011F482E0089581E08A
:10528000089580913103811102C00C943929089549
:1052900080E189BD82E189BD09B400FEFDCF809126
:1052A000D8008F7D8093D8008091E0008260809349
:1052B000E0008091E00081FDFCCF0895AF92BF92A5
:1052C000CF92DF92FF920F931F93CF93DF936C01E6
:1052D000EB018A010E94042BF82E811123C00115D5
:1052E000110539F0F80180819181C81BD90BC80ED6
:1052F000D91EB12CA12C2097A9F08091E80085FD42
:1053000022C08091E8008E778093E8000115110596
:10531000A1F0F80180819181A80EB91EB182A0820E
:1053200085E0F82E8F2DDF91CF911F910F91FF9087
:10533000DF90CF90BF90AF9008950E94042B8823F8
:10534000D1F2F82EEFCFF60181916F018093F10039
:105350002197FFEFAF1ABF0ACECFAF92BF92CF9285
:10536000DF92FF920F931F93CF93DF936C01EB01BA
:105370008A010E94042BF82E811123C0011511050A
:1053800039F0F80180819181C81BD90BC80ED91E54
:10539000B12CA12C2097A9F08091E80085FD22C0B6
:1053A0008091E8008B778093E80001151105A1F04A
:1053B000F80180819181A80EB91EB182A08285E09A
:1053C000F82E8F2DDF91CF911F910F91FF90DF90DD
:1053D000CF90BF90AF9008950E94042B8823D1F204
:1053E000F82EEFCF8091F100F60181936F012197A4
:1053F000FFEFAF1ABF0ACECFFC01CB012091FC0317
:105400003091FD032617370790F0009729F420917B
:10541000E8002E772093E80040E0009751F4411116
:1054200008C08091E80082FF31C080E00895C90182
:10543000F3CF2091F5032223A9F12530A9F1209182
:10544000E80023FD2DC02091E80022FDEACF209145
:10545000E80020FFE2CF3091F3002091F2000097A6
:1054600019F02830310558F041E02830310509F0B5
:1054700040E02091E8002E772093E800CECF4191C4
:105480004093F10001972F5F3F4FE9CF8091F503E3
:10549000882341F0853041F08091E80083FFC1CF3F
:1054A00081E0089582E0089583E00895FC01CB0136
:1054B0002091FC033091FD032617370790F00097E9
:1054C00029F42091E8002E772093E80040E000972F
:1054D00051F4411108C08091E80082FF32C080E0A1
:1054E0000895C901F3CF2091F5032223B1F12530AE
:1054F000B1F12091E80023FD2EC02091E80022FDAB
:10550000EACF2091E80020FFE2CF3091F300209114
:10551000F200009719F02830310558F041E02830AA
:10552000310509F040E02091E8002E772093E80053
:10553000CECF44914093F100319601972F5F3F4FBA
:10554000E8CF8091F503882341F0853041F08091C8
:10555000E80083FFC0CF81E0089582E0089583E0F2
:105560000895982F973028F08F708093E90081E09C
:1055700008959093E900242F762F50E0981731F08A
:105580007091EC002091ED005091F00021FD02C0DF
:105590009F5FE8CF3091EB003E7F3093EB0030917E
:1055A000ED003D7F3093ED003091EB0031603093A2
:1055B000EB007093EC002093ED005093F0002091ED
:1055C000EE0027FDE5CF80E008958091F60387FF88
:1055D00013C08091E80082FF06C08091E8008B77BD
:1055E0008093E80004C08091F5038111F2CF089503
:1055F0008091F5038823D9F38091E80080FFF8CFEC
:105600008091E8008E77ECCF2091E4003091E500A6
:1056100095E6A9012091EC00822F817020FF06C041
:105620008091E80080FF06C080E008952091E800A6
:1056300022FD1AC08091F503882389F0853089F016
:105640008091EB0085FD0FC02091E4003091E500D2
:1056500042175307F9F29150E1F684E0089582E091
:10566000089583E0089581E008950E94A32B0E948D
:10567000AB2BE0EEF0E0808181608083E8EDF0E02C
:1056800080818F77808319BCA7EDB0E08C918E7FED
:105690008C9380818F7E80831092F40308950F9302
:1056A0001F93CF93DF930E94A32B0E94AB2BC8EDD7
:1056B000D0E088818F77888388818068888388811B
:1056C0008F7D888319BC1092F5031092F10310921C
:1056D000F3031092F20300EE10E0F80180818B7F5B
:1056E000808388818160888342E060E080E00E945E
:1056F000B12AE1EEF0E080818E7F8083E2EEF0E07F
:10570000808181608083808188608083F8018081CE
:105710008E7F8083888180618883DF91CF911F9104
:105720000F910895E8EDF0E080818F7E8083E7EDB2
:10573000F0E080818160808384E082BF81E080939B
:10574000F4030C944F2BE8EDF0E080818E7F808392
:105750001092E20008951092DA001092E10008958C
:105760001F920F920FB60F9211242F933F934F93D6
:105770005F936F937F938F939F93AF93BF93EF93B9
:10578000FF938091E10082FF0BC08091E20082FFD5
:1057900007C08091E1008B7F8093E1000E94192E69
:1057A0008091DA0080FF19C08091D80080FF15C079
:1057B0008091DA008E7F8093DA008091D90080FF9B
:1057C00094C080E189BD82E189BD09B400FEFDCFAE
:1057D00081E08093F5030E9492278091E10080FF91
:1057E00019C08091E20080FF15C08091E2008E7F99
:1057F0008093E2008091E20080618093E2008091DA
:10580000D80080628093D80019BC85E08093F503AE
:105810000E94A4278091E10084FF29C08091E200CA
:1058200084FF25C080E189BD82E189BD09B400FE05
:10583000FDCF8091D8008F7D8093D8008091E100CA
:105840008F7E8093E1008091E2008F7E8093E20062
:105850008091E20081608093E2008091F1038823CF
:1058600009F449C084E08093F5030E94A527809144
:10587000E10083FF29C08091E20083FF25C0809171
:10588000E100877F8093E10082E08093F50310922E
:10589000F1038091E1008E7F8093E1008091E2002E
:1058A0008E7F8093E2008091E20080618093E2002D
:1058B00042E060E080E00E94B12A8091F0008860C0
:1058C0008093F0000E94A327FF91EF91BF91AF91C9
:1058D0009F918F917F916F915F914F913F912F9108
:1058E0000F900FBE0F901F90189519BC1092F503E2
:1058F0000E94A02772CF8091E30087FD02C081E063
:10590000B2CF83E0B0CF1F920F920FB60F92112447
:105910002F933F934F935F936F937F938F939F93B7
:10592000AF93BF93CF93DF93EF93FF93D091E900B1
:10593000DF708091EC00C82FC17080FDC0E810922C
:10594000E9008091F000877F8093F00078940E94B6
:10595000C72C1092E9008091F00088608093F000DD
:10596000CD2BCF70C093E900FF91EF91DF91CF91E4
:10597000BF91AF919F918F917F916F915F914F9167
:105980003F912F910F900FBE0F901F9018951F936E
:10599000CF93DF93CDB7DEB7AA970FB6F894DEBFEB
:1059A0000FBECDBF86EF93E0FC0101962091F10080
:1059B000208323E08E3F9207B9F70E94B62780919B
:1059C000E80083FF1EC18091F6039091F7039A309F
:1059D00008F017C1E92FF0E0E75FFF4C0C94772E39
:1059E000803899F0823809F00CC18091FA038F70E9
:1059F000873008F006C18093E9008091EB0085FBB9
:105A0000882780F91092E90006C08091F2039091F6
:105A1000F303911182609091E800977F9093E800E2
:105A20008093F1001092F1008091E8008E77E5C03C
:105A3000882309F4D3C0823009F0E3C08091F803D1
:105A40008111D6C08091FA038F702FEF280F263076
:105A500008F0D7C08093E9002091EB0020FFC8C078
:105A6000933031F48091EB0080628093EB00C0C0F2
:105A70009091EB0090619093EB0021E030E001C049
:105A8000220F8A95EAF72093EA001092EA008091AB
:105A9000EB008860EACF8111B4C01091F8031F7742
:105AA0008091E3008078812B8093E3008091E8006F
:105AB000877F8093E8000E94E52A8091E80080FFBC
:105AC000FCCF8091E30080688093E30082E01111B5
:105AD00083E08093F50395C08058823008F091C030
