:100000000C941C030C9463030C9463030C942E193E
:100010000C9463030C9463030C9463030C946303C8
:100020000C9463030C9463030C94742F0C9447306A
:100030000C9452270C9463030C9463030C94630395
:100040000C9463030C9463030C9463030C94630398
:100050000C9463030C94BD270C9463030C9463030A
:100060000C9463030C9463030C9463030C94630378
:100070000C9463030C9463030C9463030C94630368
:100080000C9463030C9463030C9463030C94630358
:100090000C9463030C9463030C9463030C94630348
:1000A0000C9463030C9463030C9463032B001400FF
:1000B0001A00080015001700E000040016000700F1
:1000C00009000A0000001D001B00060019000500C1
:1000D00000000000E200E3002C41E10031001300C9
:1000E00012000C0018001C00340033000F000E003A
:1000F0000D000B0000003800370036001000110022
:10010000000000002A0028002C424C0029001E009C
:100110001F00200021002200E0001E021F0220021A
:10012000210222020000000000002F022F00260200
:1001300000000000E200E3002C41E100350227004E
:10014000260025002400230035002E022D00250264
:100150002402230200002E002D023002300027026C
:10016000000000002A0028002C424C0029003A0020
:100170003B003C003D003E00E000810080007F002D
:10018000C65CCA5C000047004800C35CC45CCB5C32
:1001900000000000E200E3002C41E10044004300C5
:1001A0004200410040003F00450000004F00520067
:1001B00051005000000000004D004B004E004A006E
:1001C000000000002A0028002C424C000000000023
:1001D000000000000000000000000000000000001F
:1001E000000000000000000000000000000000000F
:1001F00000000000000000000000000000000000FF
:1002000000000000000000000000000000000000EE
:1002100000000000000000000000000000000000DE
:1002200000000000000000000000000000000000CE
:10023000000000002A2B2800000000000000000041
:100240000000000000000029000000002C1E3420E7
:10025000212224342627252E362D3738271E1F200D
:100260002122232425263333362E37381F04050652
:100270000708090A0B0C0D0E0F1011121314151696
:100280001718191A1B1C1D2F3130232D3504050694
:100290000708090A0B0C0D0E0F1011121314151676
:1002A0001718191A1B1C1D2F3130354C0000000087
:1002B000000000000000000000000000000000003E
:1002C0007E0F00D4FFFFFFC70000007832190A003C
:1002D000047F3F1F643214643214783C1E1E140ADB
:1002E000052223252628292A2C2D2F303233353676
:1002F000383A3B3D3E4042434547494A4C4E5051B7
:10030000535557595A5C5E6062646668696B6D6FDD
:1003100071737577797B7D7F81838587898A8C8EE0
:1003200090929496989A9C9E9FA1A3A5A7A8AAACE8
:10033000AEAFB1B3B4B6B8B9BBBCBEBFC1C2C3C522
:10034000C6C7C9CACBCCCDCED0D1D2D2D3D4D5D6C4
:10035000D7D7D8D9D9DADADBDBDBDCDCDCDCDCDDF7
:10036000DDDDDDDCDCDCDCDCDBDBDBDADAD9D9D8DB
:10037000D7D7D6D5D4D3D2D2D1D0CECDCCCBCAC973
:10038000C7C6C5C3C2C1BFBEBCBBB9B8B6B4B3B1A2
:10039000AFAEACAAA8A7A5A3A19F9E9C9A9896943D
:1003A00092908E8C8A89878583817F7D7B79777512
:1003B00073716F6D6B6968666462605E5C5A5957F1
:1003C000555351504E4C4A4947454342403E3D3BB0
:1003D0003A3836353332302F2D2C2A29282625233A
:1003E00022FFAA7F55400001010101010101010125
:1003F00002020202020202020203030303030303D6
:1004000003040404040404040505050505060606A2
:100410000606070707070708080808090909090A5F
:100420000A0A0B0B0B0C0C0C0D0D0D0E0E0E0F0F04
:100430000F10101111111212131314141515161692
:100440001717181819191A1A1B1B1C1D1D1E1E1F01
:100450002020212222232424252626272829292A50
:100460002B2C2D2D2E2F3031323233343536373878
:10047000393A3B3C3D3E3F40414243444546474874
:10048000494A4C4D4E4F50515354555658595A5B4A
:100490005D5E5F616264656668696B6C6D6F7072EA
:1004A000737577787A7B7D7E8082838587888A8C56
:1004B0008E8F91939596989A9C9EA0A2A3A5A7A98A
:1004C000ABADAFB1B3B5B7BABCBEC0C2C4C6C9CB81
:1004D000CDCFD1D4D6D8DBDDDFE2E4E7E9EBEEF037
:1004E000F3F5F8FAFDFF160365006C006500700077
:1004F000680061006E0074003400320000001603D2
:1005000069006C006C006E006500730073003000C1
:100510003700320000000403090409025B000301F4
:1005200000A0FA09040000010301010009211101E2
:1005300000012240000705810308000A09040100A8
:100540000203000000092111010001222200070519
:1005500082032000010705030320000109040200B3
:100560000103000000092111010001224F000705CD
:10057000840320000A1201100100000008494621EE
:10058000070100010200010660FF0961A101096283
:10059000150026FF009520750881020963150026C5
:1005A000FF00952075089102C005010902A101858F
:1005B000020901A100050919012905150025019568
:1005C0000575018102950175038101050109300955
:1005D000311581257F950275088106093815812519
:1005E0007F950175088106050C0A38021581257F63
:1005F000950175088106C0C005010906A10105071E
:1006000019E029E71500250195087501810295017A
:10061000750881010507190029FF150026FF0095BF
:1006200006750881000508190129059505750191D0
:1006300002950175039101C011241FBECFEFDAE0CE
:10064000DEBFCDBF04B603FE27C080912204909187
:100650002304A0912404B09125048730904BA74037
:10066000B04BD1F41092220410922304109224046F
:100670001092250414BE84B7877F84BF0FB6F89408
:10068000A89580916000886180936000109260005E
:100690000FBEE0E0F8E3099511E0A0E0B1E0ECEC7A
:1006A000F7E602C005900D92AA38B107D9F724E009
:1006B000AAE8B1E001C01D92A232B207E1F70E94A0
:1006C000402C0C9487330C940000CF939C01FB01C9
:1006D0002A328DE5380791F02B328DE53807A9F0E5
:1006E000C1E029323D4539F4C281CC2321F080E0BC
:1006F0000E949504C0E08C2FCF910895C28181E0C3
:10070000CC2331F00E943823F5CFC28182E0F8CFAC
:100710000E946923F0CF08950895089581E0089517
:100720000C94650308950C9492031F93CF93DF9369
:1007300000D000D00F92CDB7DEB749835A836B83C8
:100740003091D10289819A8131111DC06623B9F09F
:100750002223A9F00E94A124182F682F89819A8151
:100760000E94482469817A81812F0F900F900F9009
:100770000F900F90DF91CF911F910C94E6150E947E
:100780007724182FEFCF0E94A12469817A81EDCFC1
:10079000FC01262F408151816281738184810C94F8
:1007A0009503CF93DF93D82FC92F60E00E94C80331
:1007B0006D2F7C2FDF91CF910C949303FF920F93B9
:1007C0001F93CF93DF93E82FF0E0E45DFD4FF490AB
:1007D000C82FC695C695C695D0E0FE01E454FD4FDE
:1007E0000491877010E0082E02C0159507950A94B1
:1007F000E2F701701127C455DD4FFE01C491D0E02E
:1008000002C0D595C7958A95E2F7C170DD2701151D
:10081000110519F081EE0E947E1B209719F086EEDB
:100820000E947E1B8F2D0E944C1CCD2B19F086EE52
:100830000E94F61B012B41F081EEDF91CF911F91B9
:100840000F91FF900C94F61BDF91CF911F910F91A8
:10085000FF900895EF92FF920F931F93CF93DF9332
:10086000EC01162F0AE08881882309F454C08130F6
:1008700009F04EC08981813099F47E0122E0E20EB8
:10088000F11C8A810E944C1CE7012196812F815026
:1008900050F3EFE9FFE03197F1F700C00000F7CF28
:1008A000823041F47E0182E0E80EF11C8A810E94D0
:1008B0007E1BEACF833041F47E01E2E0EE0EF11CB4
:1008C0008A810E94F61BE0CF843011F02196DDCFA3
:1008D0002A81229690E080E0AE014F5F5F4F205367
:1008E000330B2A30310548F0019778F2EFE9FFE049
:1008F0003197F1F700C00000F7CF089FB001099FC2
:10090000700D1124C901860F971F2981EA01E4CFD8
:100910000E94DE03BACFDF91CF911F910F91FF901C
:10092000EF90089560E00C942A04CF93DF9300D0F9
:1009300000D0CDB7DEB721E030E002C0220F331F78
:100940008A95E2F73A83298389810E940926A98141
:10095000BA81CD01B0E0A0E089839A83AB83BC83E8
:10096000BC01CD010F900F900F900F90DF91CF91B0
:100970000C9484228F929F92AF92BF92CF92DF927B
:10098000EF92FF920F931F93CF93DF9300D000D08D
:10099000CDB7DEB76B017C0181E090E0A0E0B0E074
:1009A0004C015D0104C0880C991CAA1CBB1C4A9513
:1009B000D2F7B501A4014C015D0104C0880C991C5B
:1009C000AA1CBB1C2A95D2F7482959296A297B29D8
:1009D00004C0880F991FAA1FBB1F0A95D2F78A016E
:1009E0009B010C211D212E213F21041715072607ED
:1009F0003707F9F49C01AD012C293D294E295F29C7
:100A000029833A834B835C8369817A818B819C81C2
:100A10000F900F900F900F90DF91CF911F910F913A
:100A2000FF90EF90DF90CF90BF90AF909F908F900E
:100A3000089580959095A095B0954C015D018C200E
:100A40009D20AE20BF2089829A82AB82BC82DCCFFF
:100A50000F93CF93DF9300D000D0CDB7DEB7262F12
:100A6000042F409128035091290360912A0370912B
:100A70002B0349835A836B837C83482F69817A8156
:100A80008B819C810E94BA040F900F900F900F9061
:100A9000DF91CF910F910C9402230E94F4270E94C2
:100AA000F625811102C00E949F260C949D070C948C
:100AB0009F0708950E94F51E0E9459052FEF84E3B9
:100AC0009CE0215080409040E1F700C000000C9471
:100AD000E1270F931F93CF93DF93EC0161E00E9416
:100AE000C8038C01BE010E947513882389F1BE01E1
:100AF000C8010E949003882359F1BE01C8010E94D9
:100B00002617882329F1BE01C8010E947B1788237C
:100B1000F9F0BE01C8010E944E188823C9F0BE0139
:100B2000C8010E947212882399F08A81882339F0C3
:100B300001158CE5180751F00F3D1C4579F0CE01E9
:100B4000DF91CF911F910F910C948E030E945A0553
:100B500080E0DF91CF911F910F9108950E949F2611
:100B6000F7CF0C948D0381E008950C94B305CF93D7
:100B7000C82F0E94B1058C2FCF910C94B50590E041
:100B800080E008950895FC01EE0FFF1FE453FD4F30
:100B9000859194910895CF93DF930E94E6150E946A
:100BA000C206EC01811521E59207D8F5811530E5E3
:100BB000930708F09DC08F3F910509F0E8F4803F4E
:100BC000910508F086C0803E910570F4803C910547
:100BD00008F081C08130910559F00497813A910560
:100BE00038F0D0E0C0E004C0805E91090897C8F7F3
:100BF000CE01DF91CF9108958115904478F4C1150D
:100C000080E3D80708F06AC0C11590E2D90780F3E5
:100C1000CE019F700E94C305EC01EACFDF70D06A5D
:100C2000E7CF811526E5920760F5811535E5930735
:100C300008F090C0811544E59407F0F4C11583E5F0
:100C4000D80708F073C0C11592E5D90708F469C048
:100C5000CE018370992721E030E002C0220F331FBC
:100C60008A95E2F7C695C69540E2C49FE00111243B
:100C7000C22BD32BDC68BCCFD82FCC27C46FD06A53
:100C8000B7CFC1158AE5D80788F4C11599E5D9070A
:100C900008F06AC0CE0198558F3F910511F008F019
:100CA000A0CFDC2FCC27C06FD06AA2CFCE01905648
:100CB0008115904208F095CF8D2F8F710E945A07B1
:100CC00090E0982F882788279F719C012C2BE901A1
:100CD00049C0D0658DCF805C91099CCFCE0199270A
:100CE000D3FF03C0EC01D86C83CFEC01D06C80CF74
:100CF00074E0969587957A95E1F783702C2F269569
:100D00002695237040E2249F90011124382B8C2FCC
:100D10008370C1E0D0E002C0CC0FDD1F8A95E2F7FE
:100D2000A7CFDC2FCC27C16FD06A62CFCE018370F2
:100D3000992721E030E002C0220F331F8A95E2F7A5
:100D4000C695C69580E2C89FE0011124C22BD32B23
:100D5000DA684ECF0E945A07C82FD0E0DC2FCC278C
:100D6000CC27DF71D06244CF8C2F8F700E945A073E
:100D700034E0D695C7953A95E1F7CF70DC2FC82FB0
:100D8000D06936CF803E910599F1C8F48133910541
:100D900009F476C048F48932910509F46AC08A32B0
:100DA000910509F474C0089589339105D1F0823812
:100DB0009105B9F08533910509F454C00895843E36
:100DC000910599F138F4823E9105F9F0833E910541
:100DD00009F10895863E910599F1873E9105B9F193
:100DE0000895209113042370A1F080EE90E00895FF
:100DF0002091130420FD52C03091140430FF09C02B
:100E000024FF4FC090E080E004C02091130422FD35
:100E1000F7CF08952091130422FD46C030911404A9
:100E200030FDE3CF24FFF5CFEDCF2091140421FF57
:100E3000F0CF8091130484FDE5CF87EE90E0089514
:100E40002091130423FFE5CF24FDDCCFF6CF2091C2
:100E5000130423FD2CC03091140431FFE3CF84EE42
:100E600090E008952091130425FFD3CF89E290E00C
:100E700008952091130425FFCCCF85E390E00895D9
:100E80002091130426FFC5CF8AE290E008952091B7
:100E9000130426FFBECF81E390E0089589E390E03C
:100EA000089583EE90E0089582EE90E0089586EE36
:100EB00090E008959091130492FF06C0282F2871A6
:100EC0002830F9F4877F846093FF06C0282F2871AB
:100ED0002831F1F4877E84612091140420FF06C03C
:100EE000382F38713830D9F4877F816021FF06C0F0
:100EF000282F28712831D1F4877E816194FD877E67
:100F00000895282F24712430F9F68B7F8860DCCF78
:100F1000282F2471243101F78B7E8861DDCF382F93
:100F20003171313019F78E7F8860E0CF282F217121
:100F3000213121F78E7E8861E1CF0C948B030C94D4
:100F40008C03E82FF0E0E25AFC4F80810895089569
:100F500080EA8A95F1F70895F894E82FE295EF700A
:100F6000F0E041A18F7021E030E0B90102C0660FCE
:100F7000771F8A95E2F7CB01962F9095942391A342
:100F800092A1892B82A37894089508950E94FE0867
:100F9000809104018091040194E0811190E090938C
:100FA000670384E0891B8093660384E90E94AC0791
:100FB00086E60E94AC0787E90E94AC0786EC0E9497
:100FC000AC0784EF0E94AC0785EF0E94AC0786EF68
:100FD0000E94AC0787EF0E94AC0781E30E94AC0738
:100FE00083E30E94AC07E6E5F3E0AEE5B3E08EE50F
:100FF00093E011921D928E179F07D9F784E00E940B
:10100000A8080E944D050C9413090E94DF0888234C
:10101000F1F08091660390E0825A9C4F0E94430950
:10102000811112C080918A018F5F80938A0186307E
:1010300048F0E0916603F0E0E25AFC4F1082118222
:10104000128213820C94570510928A01FBCF809173
:10105000670390E0825A9C4F0E9462090C94C50776
:10106000CF92DF92EF92FF920F931F93CF93DF9374
:10107000C7E4D1E006E513E0D12CEE24E394F12C93
:101080008991F894E82FE295EF70F0E021A18F703C
:10109000A70102C0440F551F8A95E2F7CA01922F9B
:1010A000982B91A392A18095892382A378940E9482
:1010B000A807E1E4F1E030E020E0C12C4191A42F49
:1010C000A295AF70B0E090968C9190E04F7002C006
:1010D000959587954A95E2F780FD36C08E2D022EB4
:1010E00001C0880F0A94EAF7C82A2F5F3F4F2630C5
:1010F000310521F7FE01319780810E94AC07F8018C
:101100008081C81619F1C08281E0D82A0F5F1F4F75
:10111000F1E0CB34DF0709F0B3CF6091670370E0F3
:10112000625A7C4F2D2D44E086E593E00E94A90889
:101130000E9405088D2DDF91CF911F910F91FF9097
:10114000EF90DF90CF90089580E0CECF80E0DDCFAC
:101150000895FF920F931F93CF93DF93F82E092FDB
:10116000162FD72FC42F222349F081E080938D01C1
:101170000E94822790938C0180938B0180918D0136
:101180008823A1F080918B0190918C010E94AE2761
:10119000069760F0EF2DF02FA12FBD2FCE0FDF2F80
:1011A000D11DEC17FD0741F410928D01DF91CF9115
:1011B0001F910F91FF90089581918D93F2CF8091AF
:1011C0008E01811110C08091D80080618093D80079
:1011D0008AE18A95F1F700C08091D90080FD0AC0AC
:1011E00082E080938E0181E090918E01913009F030
:1011F00080E0089581E0F5CF0C94DF080E94FC08A0
:1012000080930401809104016BE1882349F080E020
:101210000E941E0A0E94DF08882321F00C941A09FC
:101220008BE1F6CF08950E94DF08811102C00C9473
:101230002009089562E070E085E091E00C94DB18ED
:1012400062E070E085E091E00C94E4180E940310E5
:10125000882361F085E991E00E94091081E090E027
:101260000E94BD19892B11F40C94061008958091E9
:101270009401883039F460E085E991E00E944F11D3
:10128000109294010895CF93DF93D82FC92F0E9415
:10129000260990E080E00E94BD199C0180E02115A4
:1012A000310569F4ED2FFC2FD901A057BE4F8C9169
:1012B00081932F5F3F4F24303105B1F781E0DF91FB
:1012C000CF910895CF93DF93D82FC92F0E9437096C
:1012D000ED2FFC2F90E080E02191DC01A057BE4F64
:1012E0002C93019684309105B9F7DF91CF91089541
:1012F000CF92DF92EF92FF920F931F93CF93DF93E2
:10130000D62FC72F982F711113C0442329F0E82F2F
:10131000F0E0EA51FC4F9491692F792F892FDF91EA
:10132000CF911F910F91FF90EF90DF90CF90089594
:10133000272F30E0E82FF0E0442321F0EA51FC4F62
:10134000E491F0E086E0D89F700111240FEF10E0E7
:10135000C701B8010E9413328D2F90E0880F991FAA
:10136000A5E5A69FA001A79F500D1124841B950BF6
:10137000D82EDD0CD80EC801821B930B8E9FA001C6
:101380008F9F500D9E9F500D1124952FDC9EE001E4
:101390001124CD2FDD27D801AC1BBD0BED01CE9F55
:1013A000D001CF9FB00DDE9FB00D11248B2FE8012F
:1013B000CD19D1096E01C29EE001C39ED00DD29E0F
:1013C000D00D1124CD2FDD270C1B1D0B0E9FE0012E
:1013D0000F9FD00D1E9FD00D11242E2F633071054D
:1013E000D9F03CEFE31633E0F30668F461307105A1
:1013F000B9F062307105C1F0AFEFEA16F10448F4BC
:10140000852F9D2F06C06430710589F06630710507
:10141000B9F3692F722F83CF9B2F8E2F252FF9CFF2
:101420009E2F2B2F852FF5CF8D2F9E2FF7CF8E2F11
:101430002D2FEFCF41E00C9478090895E8E1F1E019
:101440008083618308950C941A0ACF93DF93982FB9
:10145000762F842FE901692F0E94230A79836883FC
:101460008A83DF91CF910895493708F048E70C94BB
:10147000250A80916803982F9E7F61F481708260B5
:101480008093680380916B03893718F088E7809315
:101490006B0308958635B0F381708465F1CF88E0E1
:1014A00090E00C9428330F931F93CF93DF938B011D
:1014B000D82FC92F0E94390AA8016D2F7C2F88E0F0
:1014C00090E0DF91CF911F910F910C944633CF9311
:1014D000DF9300D000D0CDB7DEB780916803909144
:1014E0006903A0916A03B0916B0389839A83AB83EC
:1014F000BC83BC01CD010F900F900F900F90DF9136
:10150000CF910C94530ACF93DF9300D000D0CDB786
:10151000DEB7E8E6F3E083E0808311828FEF828319
:1015200088E783831482A8EBB2E012968C9112971D
:10153000836012968C9380819181A281B38189838B
:101540009A83AB83BC83BC01CD010F900F900F90A9
:101550000F90DF91CF910C94530A8091680380FF24
:1015600002C08695089580E00895CF93DF9300D060
:1015700000D0CDB7DEB790916C03933018F49F5F25
:1015800090936C038823B1F0809168039091690374
:10159000A0916A03B0916B0389839A83AB83BC8368
:1015A000BC01CD010F900F900F900F90DF91CF9164
:1015B0000C94530A0F900F900F900F90DF91CF91E2
:1015C000089581E00C94B50ACF93DF9300D000D04A
:1015D000CDB7DEB790916C03992319F09150909399
:1015E0006C038823B1F08091680390916903A09106
:1015F0006A03B0916B0389839A83AB83BC83BC017C
:10160000CD010F900F900F900F90DF91CF910C9420
:10161000530A0F900F900F900F90DF91CF91089584
:1016200081E00C94E40A80916C030895CF93DF93DA
:1016300000D000D0CDB7DEB780936C036623B1F045
:101640008091680390916903A0916A03B0916B0344
:1016500089839A83AB83BC83BC01CD010F900F902B
:101660000F900F90DF91CF910C94530A0F900F9031
:101670000F900F90DF91CF91089560E00C94160BBE
:1016800080916903089580916A03089580916B03A6
:10169000089570E00C94E112609119018091680343
:1016A00080FF0AC08091180123E0829FC0011124AD
:1016B00083599C4F0C94490B80911A0190911B0106
:1016C00023E0829FF0011124E359FC4F891750F762
:1016D0001182108212828F5F3396F8CF9091680347
:1016E00090FF14C090911A0120911B0133E0939F49
:1016F000F0011124E359FC4F921710F00C944C0B9D
:101700008183608342839F5F3396F6CF0895CF93A2
:10171000DF9300D00F92CDB7DEB79091680390FFB2
:101720000AC09E012F5F3F4F0E94340A4B8169819E
:101730008A810E946E0B0F900F900F90DF91CF91D6
:101740000895CF93DF93EC01EC81F0E0EF51FD4F72
:101750004491E8E6F3E0628181810E94870B8C81ED
:101760008F5F8C83DF91CF910895CF93DF93EC014E
:10177000E8E6F3E0438162818C810E94870B8C81D3
:101780008F5F8C83DF91CF9108950F931F93CF9339
:10179000DF9300D00F92CDB7DEB78C0180919D0111
:1017A00081110AC09E012F5F3F4F48E76FEF0E94F3
:1017B000340A8A8180939D01F8016481613049F087
:1017C0006230F1F080919D0140E0662331F040E00D
:1017D00019C060919D0140E080E00E946E0BF8010D
:1017E000848190E0019663E070E00E942732848358
:1017F0000F900F900F90DF91CF911F910F9108954F
:1018000040919D0180E060E0E8CFAF92BF92CF921F
:10181000DF92EF92FF920F931F93CF93DF9300D04D
:1018200000D000D00F92CDB7DEB7182FF62E042FC0
:10183000D22E9091680390FF3DC0E92FE695AE2F20
:10184000B0E0A15BBE4F8C918093B8029E7F923036
:1018500009F041C09E012F5F3F4F812F0E94340A43
:101860004B8169818A810E946E0B8091690381138B
:1018700008C080916A038F1104C080916B038017A8
:1018800029F08091BA0282608093BA0210936903B2
:10189000F0926A0300936B03DD2061F0809168038E
:1018A00090916903A0916A03B0916B03BC01CD01D3
:1018B0000E94530A27960FB6F894DEBF0FBECDBF25
:1018C000DF91CF911F910F91FF90EF90DF90CF901C
:1018D000BF90AF900895823019F400916B03C5CF8B
:1018E000863019F410916903C0CF8930D9F389315A
:1018F00009F0BBCFE9518E2F8170C82EE695F0E03C
:10190000EF51FC4FA590B490E12CBB2460911C01D9
:10191000E61618F00E944C0BA8CF2E2D30E0EA9C62
:10192000C001EB9C900D112470E00E941332812FB6
:10193000C11013C0860F40911A01420F532F511D41
:101940009A01220F331F240F351F23593C4F402F7C
:101950006F2D0E94340AE394D9CF861BECCF282F39
:10196000E8E6F3E0818143816281865F0C94050C97
:1019700081E00C94AF0C282FE8E6F3E081814381ED
:1019800062818A500C94050C81E00C94BB0C282FCA
:10199000E8E6F3E0628131E1630F08F46FEF438121
:1019A00081810C94050C81E00C94C70C282FE8E68B
:1019B000F3E0628131E1631B08F460E043818181DF
:1019C0000C94050C81E00C94D60C282FE8E6F3E08B
:1019D000438131E1430F08F44FEF628181810C9420
:1019E000050C81E00C94E50C282FE8E6F3E0438138
:1019F00031E1431B08F440E0628181810C94050CC5
:101A000081E00C94F40C20E00C94050CEF92FF9212
:101A10001F93CF93DF93EC0110E0EE24EA94F12CB6
:101A200060911C01161770F00E944C0B9A818C81FA
:101A300090FF27C08F5F8C83DF91CF911F91FF9024
:101A4000EF90089520911A01422F410F5527551FFD
:101A5000CA019A01220F331F280F391F23593C4F07
:101A600070E0C7010E942732962F8C8140916B0352
:101A700060916A03199F800D11240E94340A1F5F30
:101A8000CFCF8150D8CF9F92AF92BF92CF92DF92AB
:101A9000EF92FF920F931F93CF93DF93EC018A8114
:101AA000BB24BA9480FD02C0BB24B3948C81811105
:101AB0000AC081E0B81227C080911C018150809338
:101AC0009F0181E08C83A12C80911C01A816F0F06D
:101AD0000E944C0B80919F0191E0B91260C081116E
:101AE00059C080911C01815080939F011C82DF911D
:101AF000CF911F910F91FF90EF90DF90CF90BF900B
:101B0000AF909F90089510929F01DBCF00911A0132
:101B1000CA2CD12C0C0D1D2D111DC801880F991F29
:101B2000080F191F03591C4FF801118210821282ED
:101B300034E0E32EF12C912C80919F01890D8733A5
:101B40001CF166E30E940532892F082E000C990BC8
:101B5000C816D90691F480916B038E9DA0018F9DCC
:101B6000500D1124559547955595479598016091CD
:101B70006A03809169030E94340A9B0CF1E0EF1A1A
:101B8000F108D1F6A394A0CF87FFDFCF90911C017D
:101B9000890FDBCF815080939F01BC82A8CF90E05A
:101BA000019660911C0170E00E94273280939F0192
:101BB0008C839DCFEF92FF920F931F93CF93DF9370
:101BC000EC018C81811109C081E08C8310929E010F
:101BD00092E0909317018093160180911A019091E1
:101BE0001B0123E0829FF0011124E359FC4F891768
:101BF00068F110E003E060911C01161768F10E9483
:101C00004C0B8091160120919E01280F20939E017C
:101C100090911701980F90931701191654F4022E02
:101C2000000C330B40911C014150550B2417350714
:101C300034F0819580931601813009F41C82DF9184
:101C4000CF911F910F91FF90EF9008951182108214
:101C500012828F5F3396CBCFE12EF12C70E0C7015B
:101C60000E94273220911A01820F482F50E02091C4
:101C70009E01022E000C330BE216F306BCF02091FD
:101C80001701022E000C330B2E153F057CF0809FB0
:101C90009001112423593C4F40916B0360916A03DA
:101CA000809169030E94340A1F5FA5CFFA01EE0FED
:101CB000FF1FE40FF51FE359FC4F118210821282BF
:101CC000F3CFEF92FF920F931F93CF93DF93CDB794
:101CD000DEB72E970FB6F894DEBF0FBECDBF8D874F
:101CE0009E87AD85BE8514961C91212F30E0D901C9
:101CF0000E9472329B01AC010E94883269837A8310
:101D00008B839C83E0E2F0E0E11BF109A5E5B0E004
:101D10009B01AC010E94883269877A878B879C87F8
:101D20009F01DF010E946A326D837E838F839887D3
:101D30009B01AC010E9493329B01AC0169817A81C5
:101D40008B819C81260F371F481F591F69857A8513
:101D50008B859C850E943B32F22E822F90E079E2A7
:101D6000721788F183E0289F9001112435952795FB
:101D7000122F109500E085E5E82EEF1880911C01E8
:101D8000081780F10E944C0BAD85BE8514969C917E
:101D900081E0992319F0903219F48FEF80931501A7
:101DA00080911501890FED85FE8584832E960FB6EF
:101DB000F894DEBF0FBECDBFDF91CF911F910F9181
:101DC000FF90EF90089525E530E0D901A81BB90BED
:101DD0009D01220F331F2A0F3B1F37FFC7CF2F5FF5
:101DE0003F4FC4CF8E2D01FD8F2D20911A01E22F80
:101DF000E00FFF27FF1F9F01220F331F2E0F3F1FF2
:101E000023593C4F412F60916A030E94340A0F5FAF
:101E1000B5CF0F931F93CF93DF93EC0110E000E059
:101E200090911C019017110609F06CF40E944C0B64
:101E30008C8190E00196817099278C83DF91CF91FE
:101E40001F910F91089520911A01A801420F511D71
:101E50009A01220F331F240F351F23593C4F4C8109
:101E600060916A038091690396959017110651F06D
:101E70004CF0442349F040916B030E94340A0F5FF9
:101E80001F4FCECF4423B9F340E0F7CF8F929F92FC
:101E9000AF92BF92CF92DF92EF92FF920F931F9378
:101EA000CF93DF93FC01B280948081E0848300E0D3
:101EB00015E05BE4A52E88248394EE24EA94F12CAB
:101EC0007BE4C72ED12C80911C01081770F0DF91A4
:101ED000CF911F910F91FF90EF90DF90CF90BF9027
:101EE000AF909F908F900C944C0BC02FD0E01C9F14
:101EF000F0011D9FF00D1124ED55FE4F91101CC0F7
:101F00001382128220911A01CE01820F911D9C0131
:101F1000220F331F280F391F23593C4F1C9FF001FC
:101F20001D9FF00D1124ED55FE4F4281618180818E
:101F30000E94340A0F5FC7CF2381222379F12150F9
:101F4000238334818A2D821B311101C0822F1C9F73
:101F5000F0011D9FF00D1124ED55FE4F90916B0384
:101F6000899FC0011124B6010E941332628321119E
:101F700004C0332311F01482A38222E02B1510F247
:101F80001C9FF0011D9FF00D1124ED55FE4F809117
:101F90006903808380916A038183B4CF0E940333F5
:101FA000823091400CF0AECF82E08B1530F50E946C
:101FB0000333B7010E9427321C9FF0011D9FF00DD3
:101FC0001124ED55FE4F808322E02B15C8F40E94AA
:101FD000033320916A032695622F70E00E94273216
:101FE000280F1C9FF0011D9FF00D1124ED55FE4F91
:101FF00021831282A382848285CF80916903DCCF02
:1020000020916A03EECF8091BA0208951092BA022D
:102010000895CF93DF93EC0185E0E8E6F3E0DE017D
:1020200001900D928A95E1F78091B8029091B902E2
:10203000A091BA028D839E83AF83DF91CF910895E3
:10204000E8EBF2E011828281846082830895E8E601
:10205000F3E080818E7F80830E942010E8EBF2E025
:102060008281816082832FEF80E792E0215080405F
:102070009040E1F700C000000C944C0BCF93DF932D
:1020800000D000D0CDB7DEB7E8E6F3E080818E7FE8
:10209000808380819181A281B38189839A83AB837C
:1020A000BC83BC01CD010E94530A0E942010E8EBC2
:1020B000F2E08281816082839FEFA0E7B2E09150DD
:1020C000A040B040E1F700C000000F900F900F90CB
:1020D0000F90DF91CF910C944C0B60916803669543
:1020E00070E04BE050E08DE191E00E941333892BCA
:1020F00019F481E08093B9020E9482279093B20282
:102100008093B1028091BA0284608093BA020895EC
:10211000CF93DF9300D000D0CDB7DEB790916803A6
:1021200090FF46C09170811139C09260909368030E
:102130008091BA0281608093BA02662381F0809117
:10214000680390916903A0916A03B0916B0389833E
:102150009A83AB83BC83BC01CD010E94530A60917A
:102160006803669570E04BE050E08DE191E00E94DD
:102170001333892BD1F00E94201081E08093B402A8
:1021800040916B0360916A03809169030F900F90F7
:102190000F900F90DF91CF910C94030D8B3210F0C4
:1021A0009465C4CF880F982BC1CF0E946D10E5CFE6
:1021B0000F900F900F900F90DF91CF910895682F9F
:1021C0008091680386958F5F8B3208F081E00C94D4
:1021D000881081E00C94DF10682F90916803969529
:1021E0008FEF890F913009F48AE20C94881081E016
:1021F0000C94EC1061E00C948810E8E6F3E0808128
:102200008160808386950C94FA108091680380FD2C
:102210000C943E100C94FD1060E00C94881080919A
:10222000B702811133C00E94F625811104C00E94BB
:102230009F260E94830A0E944F0A6093680370934E
:10224000690380936A0390936B038091BA02836061
:102250008093BA026E7F61F40E94830A0E944F0A43
:10226000609368037093690380936A0390936B0390
:102270000E94390A0E9420108091680380FF03C0E9
:1022800086950E940C1181E08093B7020895E8E6DC
:10229000F3E080818160808386950C940C111F93FC
:1022A000CF93DF93EC01162F8F8180FF0CC08881C4
:1022B00080FF24C0809168038160809368038881D7
:1022C00086950E9488108F8181FF06C0212F4B8147
:1022D0006A8189810E94050C8F8182FF05C08E81F1
:1022E000882379F00E946D108F8183FF03C081E005
:1022F0008093B402DF91CF911F9108950E9427101F
:10230000E2CF0E942010F0CFEF92FF920F931F9325
:10231000CF93DF938091B902882309F468C080913C
:10232000B802E0916803E695E81BE093B3028230BF
:1023300009F064C0F0E0E352FD4FE491CE2FD0E00D
:1023400001EA1BE08091B402882389F01092B40264
:102350000E9482279E0120953095280F391F3093C7
:10236000B2022093B1021092B6021092B50280918F
:10237000B1029091B2020E94AE278C179D07B8F16E
:102380008091A2018823B1F01092A2018091A00156
:102390009091A1010E94AE278033954758F00E948A
:1023A00082279093A1018093A0018091BA02886056
:1023B0008093BA02E090B502F090B602E091B102CB
:1023C000F091B202CE0FDF1FD093B202C093B102E0
:1023D00081EB92E0F80109958091B5029091B602E7
:1023E000892B29F4EF2819F081E08093A201DF9175
:1023F000CF911F910F91FF90EF900895863049F48F
:10240000F0E0E652FD4FE491CE2FD0E005EB1BE06B
:1024100099CF893051F4E695F0E0E952FD4FE4910F
:10242000CE2FD0E006E01DE08DCF8F3051F4E69541
:10243000F0E0EC52FD4FE491CE2FD0E003E41DE03C
:1024400081CF853149F4F0E0EF52FD4FE491CE2F7A
:10245000D0E00AED1DE076CFC8E2D0E001E61EE054
:10246000883109F46FCF833239F4EFECF2E0C59193
:10247000D49105EC1BE066CFC4EFD1E009E01FE08A
:10248000843209F45FCFC0EDD7E00DE11AE0853268
:1024900009F058CF8E2F63E00E94F931E92FF0E068
:1024A000E453FD4FE491CE2FD0E006E41FE04ACF85
:1024B000FA0181110994FB01FDCFCF93DF93C82F5F
:1024C000D62F0E94AD0A8C1740F00E94AD0A8D17DE
:1024D00020F4DF91CF910C94E9108C2FDF91CF91F4
:1024E0000C94FA101F93CF93DF93EC01FB01128140
:1024F000111110C00E943E258272FE01E35CFC4572
:10250000E431F10508F05BC0E757FC4C0C945D32F8
:102510000E940511812FDF91CF911F91089547EF00
:1025200050E169EE70E10E945812F4CF49EE50E19B
:1025300067EF70E1F8CF44EC5CE068EB7CE0F3CF50
:1025400048EB5CE064EC7CE0EECF42EE5CE063EDF7
:102550007CE0E9CF43ED5CE062EE7CE0E4CF40E07C
:102560005DE061EF7CE0DFCF41EF5CE060E07DE0CB
:10257000DACF40E15BE061EE7AE0D5CF41EE5AE0A0
:1025800060E17BE0D0CF81E00E94FA10C3CF65E02C
:1025900082E00E945D12BECF68E086E0FACF6EE076
:1025A00089E0F7CF64E18FE0F4CF67E185E1F1CF17
:1025B00088E1EACF62E289E1ECCF83E2E5CF11E086
:1025C000A9CF9C01AB01539A6BB1677F7BB1786057
:1025D000EFB7F894CA01880F991F840F951F820FD7
:1025E000931F8217930741F4EFBF8FE594E00197A3
:1025F000F1F700C000000895D9014D919D0158E008
:102600007BB9000000C047FF6BB9440F000000C059
:1026100000C000C06BB900C05A9591F7E2CF82E2CA
:1026200090E00E942033813289F483E290E00E949E
:102630002033823059F484E290E00E94203391E00C
:10264000813209F090E0892F8170089580E0FCCFFD
:10265000CF93DF93C82FDFEF8111D1E26D2F82E29C
:1026600090E00E9434336FEFC11162E083E290E0AA
:102670000E9434336D2F84E290E0DF91CF910C946F
:10268000343380E00E9428130C94F0250895CF93F2
:10269000DF9300D000D0CDB7DEB785E290E00E9496
:1026A0002033282F30E050E040E0CA01B9010F90FC
:1026B0000F900F900F90DF91CF91089585E290E0F9
:1026C0000C9434330E9446130E940F1381110CC0E6
:1026D00060E070E0CB010E945E130E945D150E94D5
:1026E0004A1681E00C9428130895CF939C01FB01B6
:1026F000C281CC2301F182519F45409720F58EEE97
:10270000820F0E945A16C0E08C2FCF91089581E06D
:102710000E94382343E062E081E00E942805F3CF65
:1027200081E00E94692343E062E081E00E94280585
:10273000EBCF82E0F6CF80319F4591F321313F45C9
:10274000C1F3C1E0E1CF2031EFE53E0701F382E0C4
:1027500021313F45E9F2D8CF2FEFFC0120830895C6
:10276000CF93DF93EC0188818238C1F038F4803850
:1027700071F0813881F0DF91CF9108958338D9F7D6
:102780000E94400B89830E94430B8A83F4CF0E94EE
:10279000460B8983F0CF0E94AD0AFBCF0E94130B3A
:1027A000F8CFCF93DF93EC018881823851F138F470
:1027B000803869F08138B9F0DF91CF91089583387E
:1027C000D9F70E94460B482F6A81898108C0D981B8
:1027D0000E94430BC82F0E94400B4D2F6C2FDF919E
:1027E000CF910C94030D89810E940C118981811174
:1027F00004C0DF91CF910C942710DF91CF910C94FE
:1028000047118981DF91CF910C943D0BEF92FF929C
:102810000F931F93CF93DF93CDB7DEB72E970FB6ED
:10282000F894DEBF0FBECDBF8D839E83162F8D81A2
:102830009E81DC01ED91CD01E150E33108F0F8C05B
:10284000F0E0E356FC4C0C945D32ED81FE81118288
:1028500089E08283612F8D819E812E960FB6F89438
:10286000DEBF0FBECDBFDF91CF911F910F91FF90C3
:10287000EF900C94382BAD81BE8111968C918230F3
:1028800099F0833011F1813081F50E948E270E94EA
:1028900063326F83788789879A87ED81FE816283AF
:1028A000738384839583D6CF0E9447130E9463323B
:1028B0006B877C878D879E87AD81BE8112966D93D5
:1028C0007D938D939C931597C5CFED80FE80B2E0EC
:1028D000EB0EF11C00E0802F0E94A107F70181930D
:1028E0007F010F5F0830B9F7B5CF612F8D819E81D1
:1028F0000E94AC13AFCFAD81BE8111968C91119720
:10290000823099F712968D919D910D90BC91A02DDA
:1029100089839A83AB83BC83BC01CD010E9463325F
:102920000E945E1397CFED81FE8143816281818198
:102930000E942F15982789279827AD81BE8115966B
:102940009C938E93149786CFED81FE8124813581EF
:102950003227232732274381628181810E944815D3
:1029600079CF0E945D1576CF0E94D11373CF0E945C
:10297000B01370CF0E94670A6DCF0E94F315AD812E
:10298000BE8111968C9366CF0E94F51598278927F2
:102990009827ED81FE81928381835CCFAD81BE81DA
:1029A00013966C91139770E011968D919C911297EC
:1029B000AD014C5F5F4F9827892798270E94F81533
:1029C00049CFED81FE81638170E081819281AF0109
:1029D0004C5F5F4F9827892798270E941F163ACF90
:1029E0000E944A1637CF0E941D15C9CFED81FE8186
:1029F000638170E081819281AF014C5F5F4F9827C6
:102A0000892798270E94961525CFAD81BE81139600
:102A10006C91139770E011968D919C911297AD0176
:102A20004C5F5F4F9827892798270E94BC1512CFCB
:102A30008FEFED81FE8180830DCF84E0089550E01B
:102A4000440F551F9CE0699F400D511D112490E6D5
:102A5000899F400D511D1124CA01869608950F9338
:102A60001F93CF93DF930E941F158C010E94203388
:102A7000C82FD0E0DC2FCC27C80101960E9420335C
:102A80009E01282BC901DF91CF911F910F910895CD
:102A90000F931F93CF93DF93122F032F0E941F15C5
:102AA000EC01602F0E943433612FCE010196DF913B
:102AB000CF911F910F910C943433AF92BF92CF926C
:102AC000DF92FF920F931F93CF93DF93B12CA12C32
:102AD00000E0650110E013C0FE01259134914F2DF7
:102AE000612F802F0E9448152296F39486E0F812F9
:102AF000F3CF86E0C80ED11C1F5F183039F0E60115
:102B0000CC0FDD1FC455DF4FF12CE6CF0F5F80E304
:102B1000A80EB11C0430E9F6DF91CF911F910F91FF
:102B2000FF90DF90CF90BF90AF900895EF92FF920B
:102B30000F931F93CF93DF93EC018A017C01E60E84
:102B4000F71ECE018696CE15DF0539F4DF91CF91C1
:102B50001F910F91FF90EF900895C03821E0D207A8
:102B600040F40E942033F80180830F5F1F4F2196AD
:102B7000E8CFF8011082F9CFCF92DF92EF92FF9267
:102B80000F931F93CF93DF938C016A017C01E60EB4
:102B9000F71EEC01CE018696CE15DF0549F4DF91D4
:102BA000CF911F910F91FF90EF90DF90CF900895FC
:102BB000C03821E0D20740F4FE01E01BF10BEC0D20
:102BC000FD1D60810E9434332196E4CF462F672F8C
:102BD000843030F4783020F4463010F40C942F1503
:102BE00090E080E0089580E108958AE592E00895FC
:102BF000EF92FF920F931F93CF93DF93EC018A0123
:102C00007C01E60EF71ECE018A559E4FCE15DF05DC
:102C100039F4DF91CF911F910F91FF90EF900895BC
:102C2000CA3522E0D20740F40E942033F8018083A5
:102C30000F5F1F4F2196E7CFF8011082F9CFCF9297
:102C4000DF92EF92FF920F931F93CF93DF938C014C
:102C50006A017C01E60EF71EEC01CE018A559E4FFB
:102C6000CE15DF0549F4DF91CF911F910F91FF90B1
:102C7000EF90DF90CF900895CA3522E0D20740F45C
:102C8000FE01E01BF10BEC0DFD1D60810E94343351
:102C90002196E3CFCF93DF93C6EAD1E060E0CE0187
:102CA0000E9434332196C11584E0D807B9F7DF912B
:102CB000CF910895DF92EF92FF920F931F93CF93DE
:102CC000DF9300D000D0CDB7DEB7F82E8FE08F15A0
:102CD00040F08FEF93E00E94203306EA11E0882352
:102CE000C1F00F900F900F900F90DF91CF911F9137
:102CF0000F91FF90EF90DF900895011584E0180781
:102D000081F3C8010E942033811101C0FA940F5F42
:102D10001F4FF110F2CF80913D0190913E01A091A3
:102D20003F01B091400189839A83AB83BC83DD244A
:102D3000D39478018FEFE81AF80AC8010E94203373
:102D400089831A82882369F29FEF980F933080F469
:102D50008A83D9820E5F1F4FC7010E9420338B8365
:102D6000882309F4BECFCE0101960E949204E1CFE0
:102D70008701F9CF0F931F93CF93DF93C42FD22FE7
:102D8000FC0182818823C9F04093BD020E94822702
:102D90009093BC028093BB0280E28C0F883008F0D5
:102DA00050C0C77081E001C0880FCA95EAF7DF9173
:102DB000CF911F910F910C945F1C1091BD021413C1
:102DC00035C08091BB029091BC020E94AE27883C26
:102DD000910560F5C0E2CD0F1D17B9F080E2810FBB
:102DE000883040F4177081E001C0880F1A95EAF727
:102DF0000E94661CC83048F481E09D2F977001C086
:102E0000880F9A95EAF70E945F1C802F0E944C1C45
:102E1000C830B8F4D77081E001C0880FDA95EAF7BE
:102E2000DF91CF911F910F910C94661C80E28C0F63
:102E3000883038F4C77081E001C0880FCA95EAF77E
:102E4000EFCFDF91CF911F910F9108950F939C01C8
:102E5000CB01243F4CE53407A1F190F4293DFCE57A
:102E60003F0749F12A3D4CE53407E9F1283D3C454F
:102E7000C1F0FC0182818823E1F11092BD0219C0EA
:102E8000263FFCE53F0719F1273F4CE5340729F1C0
:102E9000253F3C4571F707E225EE44EE65EF7CE502
:102EA00005C006E221EE41EE68ED7CE50E94BA160F
:102EB00080E00F91089507E225EE45EE69ED7CE58F
:102EC000F5CF06E221EE40EE64EF7CE5EFCF06E2BF
:102ED00021EE42EE66EF7CE5E9CF07E225EE46EE15
:102EE00067EF7CE5E3CF08E221E045EE6AED7CE5A3
:102EF000DDCF81E0DECFCF93DF93EC01FB01828158
:102F0000882309F4C9C0C631FCE5DF07E0F4C2300C
:102F10009CE5D907F0F00E940E269093140480934C
:102F20001304C631ECE5DE0720F5C230FCE5DF070F
:102F300098F480911304909114040E941C260E941E
:102F4000F51E80E006C09E012B5F3C45293031050F
:102F500010F3DF91CF910895FE01E350FC4580917D
:102F600013048160E331F10588F4E055FC4C0C94C6
:102F70005D32CB5FDC45C930D105D8F6CD53DC4C92
:102F8000FE010C945D3280911304826080931304DF
:102F9000D0CF809113048460F9CF809113048860AE
:102FA000F5CF80911404816080931404C2CF809186
:102FB00014048260F9CF809113048061E7CF80917F
:102FC00013048062E3CF809113048064DFCF0E94FA
:102FD000F51E809113048068D9CF809113048C6012
:102FE000D5CF809114048360DFCF809113048E7F4E
:102FF000CDCF809113048D7FC9CF809113048B7F37
:10300000C5CF80911304877FC1CF809114048E7F38
:10301000CBCF809114048D7FC7CF809113048F7E16
:10302000B5CF809113048F7DB1CF809113048F7B36
:10303000ADCF0E94F51E809113048F77A7CF8091AA
:103040001304837FA3CF809114048C7FADCF809134
:10305000130482FB992790F921E0922790FB82F9D3
:1030600090FB83F993CF80911404982F90959170E1
:103070008E7F892B90FB81F997CF0E94F51E90914E
:103080001304892F97FB87F9805880CF81E00E9435
:10309000A1264FCF80E0FBCF81E05BCFCF93DF93C2
:1030A000EB0186319C4511F50E943E259A819923BA
:1030B00099F08A7A91E009F490E09093BE02811130
:1030C00009C089E20E9419250E948D2580E0DF91C8
:1030D000CF91089585E3F6CF8091BE02811104C09F
:1030E00089E20E942025F0CF85E3FBCF81E0EFCF7E
:1030F0008EE14A9B02C08150E1F74A9BFECF0895C2
:103100005A9880E28A95F1F75A9A0895FC013BE0BB
:103110003A95F1F720E090E080E031E040E14A9517
:10312000F1F7880F4A9B02C08160232742E04A954D
:10313000F1F7000040E14A95F1F79F5F6913EECF88
:1031400090E19A95F1F799B132E03A95F1F70000E4
:1031500040E14A95F1F792FB992790F99227208157
:10316000920F90830895EF92FF920F931F93CF9346
:10317000DF930F92CDB7DEB719828C017C01E60E8A
:10318000F11C0E151F0561F481E09981911180E019
:103190000F90DF91CF911F910F91FF90EF900895C5
:1031A0000E94781868E0CE0101960E948618F80106
:1031B00081938F01E6CF9093C1028093C002609308
:1031C000BF02529A5A9A08959093C1028093C00206
:1031D0006093BF0252985A9AEA9AE9E6F0E0808139
:1031E0008F7C808308956150770B91E001C0990F27
:1031F0006A95EAF720E031E0911108C0222391F0AE
:103200005A9A80E28A95F1F75A980895492F4823EF
:1032100039F05A9A232740E24A95F1F79695ECCF78
:103220005A98F9CF5A98EDCFFF920F931F93CF93EF
:10323000DF93EC018C01060F111DC017D10731F48B
:10324000DF91CF911F910F91FF900895F9900E9407
:10325000801868E08F2D0E94F318EFCF1F920F9215
:103260000FB60F9211240F931F932F933F934F93F9
:103270005F936F937F938F939F93AF93BF93EF93DE
:10328000FF93CF93DF930F92CDB7DEB719820E94E1
:10329000781867E0CE0101960E948618082F0695DF
:1032A00006950695982F92959570202F2570920F70
:1032B000292F2370969596958770920F891344C095
:1032C0008981811141C08091BF028017E8F120E11E
:1032D0002A95F1F75A9A529A82E08A95F1F700C03E
:1032E000A8E00A9FC00111240091C0021091C10200
:1032F000080F191F5A98F8016581662321F086810D
:1033000097810E9414190E948018F0E1FA95F1F754
:103310005A9852985A9A20E12A95F1F7D8011296B4
:103320006C911297662331F113968D919C910E94B6
:10333000B318D801ED91FC91882311F088E001C009
:1033400082E080830E9478180F90DF91CF91FF91E7
:10335000EF91BF91AF919F918F917F916F915F910D
:103360004F913F912F911F910F910F900FBE0F9092
:103370001F901895ED91FC91E1CF0F931F93CF9380
:10338000DF939C018091BF02821713060CF471C079
:10339000890183E0000F111F8A95E1F7C091C002F7
:1033A000D091C102C00FD11FF894529A5A9885E06B
:1033B0008A95F1F70000922F969595702570920FDF
:1033C000892F837096959695980F092B0E948018E7
:1033D00000C067E0802F0E94F31880E18A95F1F722
:1033E00052985A9A4A9B17C087E090E04A9915C0B4
:1033F0006D81662321F18E819F810E94B318811116
:103400001EC0529A5A9AE881F98182E080837894AA
:1034100082E090E00DC000C0E5CF019771F4529AB0
:103420005A9AE881F98181E08083789481E090E084
:10343000DF91CF911F910F91089500C0D7CF0E94C7
:10344000781880E28A95F1F75A98529A80E18A9525
:10345000F1F76A81662321F08B819C810E94141907
:103460000E948018E881F9811082789490E080E0D1
:10347000DFCF84E090E0DCCF9093C7028093C60258
:103480000895E091C602F091C702309721F00190B3
:10349000F081E02D099480E00895E091C602F0915A
:1034A000C702309721F00280F381E02D099408953E
:1034B000DC01E091C602F091C702309739F082E05A
:1034C0008C930480F581E02DCD010994089520911D
:1034D000C4023091C5022817390771F09093C502D4
:1034E0008093C402E091C602F091C702309721F0A8
:1034F0000680F781E02D099408952091C202309151
:10350000C3022817390771F09093C3028093C20257
:10351000E091C602F091C702309721F00084F18556
:10352000E02D0994089585B7806885BF85B78068C8
:1035300085BF0895089508950C949A1A08950C94DF
:103540009E1A0E94931A0E949B1A0C949C1A0C9427
:10355000DF08089508950E9479270E94C6070E94F7
:1035600062130E9408280E940F110C949F1ABF92A8
:10357000CF92DF92EF92FF920F931F93CF93DF933F
:1035800000D000D00F92CDB7DEB70E94A91A0E94DA
:10359000AA1A0E9430080E94A71A882309F460C062
:1035A00089ECC82E82E0D82E10E000E0B02E802FEB
:1035B0000E94A107F82EF601E1906F01E81609F4C8
:1035C00049C080913D0381FD0E94A7079E2D9F2544
:1035D00080E0EE24E394292F2E21B9F18983BA8269
:1035E000FE2081E009F480E08B830E9482278160C5
:1035F000782F9D838C8349815A816B818D810E94B4
:10360000501BF801E753FD4F8081E826E0820E94BD
:1036100084110E94C6290E94411A9091C8028917FC
:1036200081F10E94411A8093C8020F900F900F9071
:103630000F900F90DF91CF911F910F91FF90EF901E
:10364000DF90CF90BF900C94B7058F5FEE0C863063
:1036500009F0C1CF0F5F1F4F0830110509F0A6CF49
:103660008FEF89838A831B820E9482278160782F53
:103670009D838C8349815A816B818D810E94501B6F
:10368000C6CF0F900F900F900F900F90DF91CF91BA
:103690001F910F91FF90EF90DF90CF90BF90089512
:1036A000CF93DF93CDB7DEB72B970FB6F894DEBF7D
:1036B0000FBECDBF4F83588769877A878B871E825D
:1036C00085E0FE013796DE01119601900D928A95F4
:1036D000E1F749815A816B817C818D819E812B9696
:1036E0000FB6F894DEBF0FBECDBFDF91CF910C9423
:1036F0005821FC01808191810C94E324CF93C82F41
:10370000882309F471C08238C1F40E94411A81FDF6
:103710006BC089E30E9419250E948D252FEF81EE51
:1037200094E0215080409040E1F700C0000089E320
:103730000E942025CF910C948D258338A1F40E94FE
:10374000411A80FD51C083E50E9419250E948D25F4
:103750002FEF81EE94E0215080409040E1F700C0CF
:10376000000083E5E5CF8438A1F40E94411A82FD70
:103770003BC087E40E9419250E948D252FEF81EE22
:1037800094E0215080409040E1F700C0000087E4C1
:10379000CFCF8CEF8C0F813A90F46C2F8091280161
:1037A000909129010E94B826882329F08C2F0E942D
:1037B00020250E948D258C2F0E941925BBCF80E2E9
:1037C0008C0F883048F4C77081E001C0880FCA951B
:1037D000EAF70E944125AECFC03F30F08C2F0E9407
:1037E000C128CF910C94AC29CF910895882309F476
:1037F00052C0823871F40E94411A81FF4CC089E3A3
:103800000E9419250E948D2589E30E9420250C9491
:103810008D25833859F40E94411A80FF3CC083E50E
:103820000E9419250E948D2583E5EFCF843859F435
:103830000E94411A82FF2FC087E40E9419250E942E
:103840008D2587E4E2CF9CEF980F913AF0F290E259
:10385000980F983050F4877091E001C0990F8A95C5
:10386000EAF7892F0E944725D2CF9BE5980F933026
:1038700020F490E080E00C94671A98E5980F973157
:1038800020F490E080E00C947D1A803F20F00E94AC
:1038900029290C94AC290895CF93C82F0E947E1B30
:1038A000C93349F42FEF87EE93E0215080409040D8
:1038B000E1F700C000008C2FCF910C94F61B8823F9
:1038C00021F00E9441250C948D250895882321F034
:1038D0000E9447250C948D250895AF92BF92CF92F8
:1038E000DF92EF92FF920F931F93CF93DF9300D05D
:1038F00000D00F92CDB7DEB76C016D837983FC01E8
:10390000058102950F70128111110E9460250E949D
:103910003725E82E882391F01123D1F08981807F0B
:10392000803421F08D81805E883090F082E00E94AA
:10393000D8250E94372591E0E82EE926A980A29497
:103940009FE0A922B12CF501E453FC4C0C945D32AC
:10395000E12CF4CF09810F70F981F07F11F002950D
:10396000007F1123B1F0002361F08D81805E8830EB
:1039700018F02D81211109C0802F0E9441250E943D
:103980008D258D810E947E1B15C0802F0E9452259F
:10399000F6CF8D810E94F61B002361F08D81805E41
:1039A000883018F04D81411133C0802F0E94472587
:1039B0000E948D2558E0A51AB10864E0A616B1044E
:1039C00020F40E94411A0E94B705EE2009F4B0C10C
:1039D0000E94332580FDACC1F60112820E942D2584
:1039E0000E943823C6010E94BF1E0E942D250F9001
:1039F0000F900F900F900F90DF91CF911F910F912B
:103A0000FF90EF90DF90CF90BF90AF900C94692320
:103A1000802F0E945825CCCF59815F70F52E698187
:103A2000607F603219F0F29480EFF8227D81772375
:103A300069F0713049F1112391F1002351F1F60140
:103A4000858180FF9ECF8F70858323C0112381F0F5
:103A5000011106C00E9474258F290E945F1CAACF05
:103A60000130C1F70E9474258F290E947A25A2CFC8
:103A7000011106C00E9483258F2D0E94661C9ACFDB
:103A8000013009F497CFF6CF112329F0063008F062
:103A900091CF8F2DE2CF053008F08CCFEDCF0023F2
:103AA00059F3FD81F93349F42FEF47EE53E02150EC
:103AB00040405040E1F700C000008D810E94F61B9D
:103AC00079CF8D81112329F00E94C1280E94AC2951
:103AD00071CF0E942929FACF8981837009F050C0E3
:103AE000111168CF4D81429546954770440F440FA0
:103AF0008D818F7090E0B0E0A0E0042E04C0880FAC
:103B0000991FAA1FBB1F0A94D2F76D8100E010E035
:103B1000980164FF0FC00FE010E020E030E004C027
:103B2000000F111F221F331F4A95D2F700951095E1
:103B30002095309579817695769573707D83B9015E
:103B4000A801482B592B6A2B7B2B49835A836B8303
:103B50007C835D8169817A818B819C81523051F0B7
:103B6000533059F0513019F00E94AE2223CF0E94F9
:103B7000862220CF0E94D6221DCF0E9484221ACFF7
:103B80008695112311F089818170882309F412CF61
:103B90004D81429546954770440F440F8D818F703B
:103BA00090E0B0E0A0E0042E04C0880F991FAA1F87
:103BB000BB1F0A94D2F76D8100E010E0980164FF0A
:103BC0000FC00FE010E020E030E004C0000F111F34
:103BD000221F331F4A95D2F70095109520953095F6
:103BE00079817695769573707D83B901A801482B0C
:103BF000592B6A2B7B2B49835A836B837C835D8192
:103C000069817A818B819C81523051F0533059F017
:103C1000513019F00E94F723CDCE0E94CF23CACE97
:103C20000E941F24C7CE0E940223C4CE69816F70F8
:103C30006983112329F0862F0E9438238D810DCFAF
:103C40008D810E94661C89810E946923B3CE7D818B
:103C5000723FA1F160F4703FE1F0713F41F1112337
:103C600009F445C001118DCE89818F7124C08D81E9
:103C7000833F49F1843F99F7112379F199819F712D
:103C80009983892F0E94382363E089810E94C3258C
:103C900091CE112341F0053008F08CCE89818F71CF
:103CA0000E949E2387CE063008F084CEF7CF89810C
:103CB0008F71112349F20E9438237CCE89818F7144
:103CC0001123C9F3C1CF112329F089818F710E947B
:103CD000132370CE0E940E236DCE81E00E94D82562
:103CE000023008F467CE82E00E94D82563CE00231C
:103CF00061F0ED81E93309F0E0CEFFEF27EE43E01C
:103D0000F15020404040E1F7D6CE89818F719CCFA1
:103D100049814F706D81C6010E94BF050E94F82144
:103D200049CE49814F706D81C6010E94C20542CEC5
:103D30000F900F900F900F900F90DF91CF911F91E8
:103D40000F91FF90EF90DF90CF90BF90AF900895CC
:103D50000F931F93CF93DF93EC01688179818A8160
:103D60000E94EF248C010E9447240E948322B80104
:103D7000CE01DF91CF911F910F910C946D1CCF93C9
:103D8000DF93EC018B819C81892B29F088819981BB
:103D900089238F3F59F4DF91CF910895CE010E947E
:103DA000A81ECE01DF91CF910C94D103CE010E94C9
:103DB00069058111F3CF0E943725882361F38A8139
:103DC000882349F382E0DF91CF910C94D8250E949B
:103DD00060250E9471250E948D250E94D62A0C9490
:103DE000AC290E9427250C94E71E0E944F250C94B5
:103DF000F11E282F892F82958F70903C80F48A3095
:103E0000B0F4843020F4823090F480E0089586305D
:103E1000E1F781E0283E88F0213FB9F70EC08C30F1
:103E200011F08F3091F793FB882780F9089581E096
:103E3000203F39F018F4283E40F70895243F29F731
:103E4000FCCF08950E94E3240C94F91ECF93DF93D6
:103E500000D000D00F92CDB7DEB70F900F900F902B
:103E60000F900F90DF91CF910895CF93DF9300D003
:103E700000D000D0CDB7DEB726960FB6F894DEBFDF
:103E80000FBECDBFDF91CF9108951F93CF93DF93E6
:103E9000E091D20216E08091D3028E1304C0DF912C
:103EA000CF911F910895CE2FD0E01E9FF0011124D5
:103EB000EC52FD4F408151816281738184819581F3
:103EC0000E94351FFE013196E770E5CF4091040353
:103ED00050910503609106037091070380910803D8
:103EE000909109030C94351F1F93CF93DF9380911A
:103EF0000903807FA9F480910603882389F08091CB
:103F0000D202C091D3026091040370910503A09185
:103F10000703B0910803D62FD72316E0C81304C0B7
:103F2000DF91CF911F91089590E0109711F0DF3F3E
:103F300019F401968770F2CF189F9001199F300DE8
:103F40001124F901EC52FD4F41814713F2CF40811A
:103F50004613EFCF42814111ECCF438154814A1B7C
:103F60005B0B483C510528F7809109038F708061F5
:103F700080930903F901E752FD4F80818F708061C2
:103F8000808384E093E00E94BF1EDF91CF911F9158
:103F90000C94451FAF92BF92CF92DF92EF92FF92A7
:103FA0000F931F93CF93DF93CDB7DEB72B970FB649
:103FB000F894DEBF0FBECDBF8C0185E0F801DE01B5
:103FC000179601900D928A95E1F7F8014081518191
:103FD000E28084E0C82E83E0D82E609107037091C0
:103FE00008036115710509F444C1909104032091FF
:103FF0000503822F89238F3F09F43BC1A380B4803E
:10400000F0900603F501E61BF70BFF2009F4E0C072
:1040100080910903382F307FE83CF10508F0B2C0E9
:10402000311179C0FE2C251323C0941321C0E11057
:104030001FC08F708061809309030E94661FC601B4
:104040000E94BF1E80910903F80185838F2D2B9656
:104050000FB6F894DEBF0FBECDBFDF91CF911F9199
:104060000F91FF90EF90DF90CF90BF90AF900895A9
:10407000AB2829F0842F85238F3F09F016C180E0FB
:10408000F82FF170DF2EE091D2022091D30236E0BA
:1040900080FD1CC0EE20D1F28091090381608093E5
:1040A0000903F12CD3CF8E2F90E03E9FF001112415
:1040B000EC52FD4F6181651306C06081641303C03B
:1040C0006281E612E7CFFC013196E770E213EBCF95
:1040D0004F8358878F8198850E94E324292F22954A
:1040E0002F70903260F0225F2F70223078F49F7032
:1040F00051F0F8019581907F31F4D12C0AC09F7066
:1041000011F08823D1F3805E8830B8F3C8010E9493
:10411000BF1EFD2C9BCF251306C0941304C0F801CD
:10412000EE2009F470C04F8358878F8198850E94D4
:10413000221F882319F1EE2009F1809109038032B2
:1041400070F020910403309105033A8329831B8288
:10415000BD82AC828E83CE0101960E94BF1E86E096
:10416000F801A4E0B3E001900D928A95E1F70E9476
:10417000741F0E94661FFF24F39468CFC8010E9439
:10418000BF1EF9CF311113C07A2DBB86AA866E2DC2
:104190008B850E94261F84E093E00E94BF1E86E06C
:1041A000F60111928A95E9F70E94661F7ACF2513CE
:1041B000BACF9413B8CFE110B6CFF8018583C80108
:1041C0000E94BF1E86E0F60111928A95E9F73ECF64
:1041D000E83CF10508F040C0FE2CEE2079F22513F2
:1041E0002AC0941328C08091090380FD1BC0982F1A
:1041F000907FC1F0F8018583903F31F0982F907F38
:10420000905F8F70892B8583C8010E94BF1E86E056
:10421000F801A4E0B3E001900D928A95E1F70E94C5
:10422000661F14CF86E0F801A4E0B3E001900D9280
:104230008A95E1F70BCF4F8358878F8198850E942D
:10424000221F81118CCF8091090381608093090323
:10425000C8010E94BF1EFACE7A2DBB86AA866E2D9B
:104260008B850E94261F86E0F60111928A95E9F758
:10427000D6CFEE2009F482CF4F8358878F8198855F
:104280000E94221FF82E882309F478CF86E0F801D7
:10429000A4E0B3E001900D928A95E1F784E093E009
:1042A0000E94791B0E94741FBACF81E08E25E8CE50
:1042B0001F93CF93DF93CDB7DEB72C970FB6F8944B
:1042C000DEBF0FBECDBF4F83588769877A878B8744
:1042D0009C87CE0107960E94CA1F882369F08A85B1
:1042E0009B85892B39F04F815885842F85238F3FFB
:1042F00009F077C016E065C086E0FE013796DE0162
:10430000119601900D928A95E1F76A857B8561157A
:10431000710581F35F814885842F85238F3F51F399
:104320002091D30230E0C901019687709927E0916E
:10433000D202E817190671F40E94F51E1092D302FA
:104340001092D20286E0E4E0F3E0DF011D928A954C
:10435000E9F7D0CF59834A837D836C8396E0929F9F
:10436000D001939FB00D1124AC52BD4FFE01319688
:1043700001900D929A95E1F78093D3020E94451F18
:10438000B9CF819FC00111248C529D4F0E94CA1F3A
:104390008823E9F0E091D2021E9FF0011124EC5233
:1043A000FD4F4081518162817381848195810E949A
:1043B000351F8091D20290E00196877099278093F3
:1043C000D2028091D2029091D3028913DACF2C9637
:1043D0000FB6F894DEBF0FBECDBFDF91CF911F9116
:1043E000089569857A858B859C850E94351F82CFCB
:1043F000EF92FF920F931F93CF93DF938C01892B42
:1044000089F0F12CEE24E394E8012196F8018491DF
:10441000843709F457C0A0F4823009F43EC048F450
:104420008130D1F0DF91CF911F910F91FF90EF90EC
:1044300008959CEF980F9037A8F70E947E1B0AC042
:10444000853709F44CC09CE7980F903758F78F7761
:104450000E94F61B8E0116C00E5F1F4FFE01849155
:1044600090E2980F983060F48770FE2D01C0FF0F26
:104470008A95EAF78F2F0E9463250E948D2502C03E
:104480000E947E1B8F2D815008F4BECFEFE9FFE024
:104490003197F1F700C00000F6CF0E5F1F4FFE010D
:1044A000849190E2980F983050F48770FE2D01C0EF
:1044B000FF0F8A95EAF78F2F0E946925DECF0E94B1
:1044C000F61BE0CF0E5F1F4FFE01C491C150D0F22A
:1044D0008FE99FE00197F1F700C00000F7CF0E5F72
:1044E0001F4FFE01F490CECF08950C9474220E94C9
:1044F000752260932C0370932D0380932E03909369
:104500002F030C94E71E08950C947722CF93DF932A
:1045100000D000D0CDB7DEB769837A838B839C83CC
:1045200080912C0390912D03A0912E03B0912F0325
:1045300029813A814B815C81282B392B4A2B5B2BBB
:1045400029833A834B835C83CA01B9010F900F9092
:104550000F900F90DF91CF910C947722CF93DF9340
:1045600000D000D0CDB7DEB769837A838B839C837C
:1045700080912C0390912D03A0912E03B0912F03D5
:1045800029813A814B815C81282339234A235B238B
:1045900029833A834B835C83CA01B9010F900F9042
:1045A0000F900F90DF91CF910C947722CF93DF93F0
:1045B00000D000D0CDB7DEB769837A838B839C832C
:1045C00080912C0390912D03A0912E03B0912F0385
:1045D00029813A814B815C81282739274A275B272B
:1045E00029833A834B835C83CA01B9010F900F90F2
:1045F0000F900F90DF91CF910C9477220C9474223E
:104600000C94FE220E9400236093280370932903D8
:1046100080932A0390932B030C94E71E60E070E0D4
:10462000CB010C9402230F931F93CF93DF9300D001
:1046300000D0CDB7DEB741E050E060E070E08A0125
:104640009B0104C0000F111F221F331F8A95D2F750
:1046500009831A832B833C83C901B8010F900F9003
:104660000F900F90DF91CF911F910F910C94022327
:104670000F931F93CF93DF9300D000D0CDB7DEB759
:1046800041E050E060E070E004C0440F551F661F39
:10469000771F8A95D2F78091280390912903A091E2
:1046A0002A03B0912B038A019B01082B192B2A2B7B
:1046B0003B2B09831A832B833C83C901B8010F90DC
:1046C0000F900F900F90DF91CF911F910F910C944D
:1046D00002230F931F93CF93DF9300D000D0CDB769
:1046E000DEB741E050E060E070E004C0440F551FC9
:1046F000661F771F8A95D2F7409550956095709503
:104700008091280390912903A0912A03B0912B0353
:104710008A019B01082319232A233B2309831A8337
:104720002B833C83C901B8010F900F900F900F901D
:10473000DF91CF911F910F910C9402230F931F9340
:10474000CF93DF9300D000D0CDB7DEB741E050E08B
:1047500060E070E004C0440F551F661F771F8A9504
:10476000D2F78091280390912903A0912A03B09158
:104770002B038A019B01082719272A273B27098336
:104780001A832B833C83C901B8010F900F900F90BF
:104790000F90DF91CF911F910F910C940223CF9333
:1047A000DF9300D000D0CDB7DEB769837A838B83E7
:1047B0009C838091280390912903A0912A03B091B2
:1047C0002B0329813A814B815C81282B392B4A2B81
:1047D0005B2B29833A834B835C83CA01B9010F9019
:1047E0000F900F900F90DF91CF910C940223CF93F5
:1047F000DF9300D000D0CDB7DEB769837A838B8397
:104800009C838091280390912903A0912A03B09161
:104810002B0329813A814B815C81282339234A2348
:104820005B2329833A834B835C83CA01B9010F90D0
:104830000F900F900F90DF91CF910C940223CF93A4
:10484000DF9300D000D0CDB7DEB769837A838B8346
:104850009C838091280390912903A0912A03B09111
:104860002B0329813A814B815C81282739274A27EC
:104870005B2729833A834B835C83CA01B9010F907C
:104880000F900F900F90DF91CF910C940223089519
:10489000292F220FE22FE90FEE0FE80F8E2F8770DE
:1048A00041E001C0440F8A95EAF7E695E695E69562
:1048B00085E0E89FF0011124E65FFC4F30E020E046
:1048C00070E05191DF011197CB01022E02C0969545
:1048D00087950A94E2F7817081958527842385273F
:1048E0008C932F5F3F4F2530310559F70895292FBD
:1048F000220FE22FE90FEE0FE80F9E2F9770E6953B
:10490000E695E69585E0E89FF0011124E65FFC4F0F
:1049100050E040E080E0219130E0092E02C0369561
:1049200027950A94E2F721703327042E01C0220F45
:104930000A94EAF7822B4F5F5F4F4530510559F7D4
:104940000895BF92CF92DF92EF92FF920F931F9341
:10495000CF93DF938C01C0902803D0902903E0907F
:104960002A03F0902B0380912C0390912D03A091AA
:104970002E03B0912F03C82AD92AEA2AFB2ACFE1B5
:10498000D0E0BC2ED701C6010C2E04C0B695A79569
:10499000979587950A94D2F780FD0EC0219788F7E6
:1049A000B12C8B2DDF91CF911F910F91FF90EF9044
:1049B000DF90CF90BF900895B8018C2F0E94CB0557
:1049C000019761F3EECFCF93DF93D82FC92F0E94C9
:1049D000A1246D2F7C2FDF91CF910C94CB051F93D9
:1049E000CF93DF93162FD72F9091D102992339F0CF
:1049F000862F972FDF91CF911F910C94E32488236A
:104A000091F0862F972F0E94A124C82F682F812F05
:104A10009D2F0E944824612F7D2F8C2FDF91CF91F5
:104A20001F910C94CB05862F972F0E947724C82FB7
:104A3000F2CF682F80912801909129010C94F226E1
:104A4000682F80912801909129010C94F42680917F
:104A50002801909129010C94F626809130038595C8
:104A6000859585950895809130038770089590917C
:104A70003003977081E009F480E0089580913C0351
:104A8000089590913C03982B90933C030895982FA0
:104A9000909580913C03892380933C030895109264
:104AA0003C03089590913B03982B90933B0308950A
:104AB000982F909580913B03892380933B03089521
:104AC00010923B03089590913A03982B90933A03E8
:104AD0000895982F909580913A03892380933A0303
:104AE000089510923A03089580913103089508952E
:104AF0000C94772590913103981721F0809331031E
:104B00000C947825089580913103882329F0109220
:104B1000310380E00C9478250895E0912801F0910C
:104B2000290180913C038083E0912801F0912901C3
:104B3000808190913B03892B8083E0912801F09143
:104B40002901808190913A03892B808390913103D0
:104B5000992381F0E0912801F09129018081892B2E
:104B6000808380912801909129010E94A6268111BD
:104B70000E94832580912801909129010C944D1A5F
:104B800008950C94C02598E0899F90011124622B10
:104B9000609330030E94382380913003859585957A
:104BA00085950C94C1251092300380E00C94C125AA
:104BB000909130038095892380933003282F2770AC
:104BC00071F4282F082E000C330B9217130639F0BE
:104BD0008595859585950E9469230C94D325089524
:104BE0006FEF7FEF90E080E00C94523390E080E034
:104BF0000E942E339C0181E02C3E3E4F09F080E064
:104C0000089582E090E00C94203383E090E00C94CF
:104C10002033682F83E090E00C943433CF9384E00A
:104C200090E00E942033C82F81E290E00E94203360
:104C3000982F8C2FCF910895CF93682FC92F84E0A0
:104C400090E00E9434336C2F81E290E0CF910C947D
:104C50003433AB01BC018FE090E00C944633AB01E0
:104C6000BC0183E190E00C94463360E070E0CB013E
:104C70000C942F2660E070E0CB010E9429260C9452
:104C800035266CEE7EEF90E080E00E94523360E0CB
:104C900082E090E00E94343360E083E090E00E9484
:104CA000343310922C0310922D0310922E03109285
:104CB0002F0360E084E090E00E94343360E081E202
:104CC00090E00E94343360E085E090E00E9434334D
:104CD00060E086E090E00E9434336FEF87E090E080
:104CE0000E94343340E050E0BA0188E090E00E9436
:104CF000463360E08DE090E00E94343340E050E0C5
:104D0000BA0188E190E00E94463360E087E190E0DC
:104D10000E94343340E050E0BA018CE190E00E9400
:104D2000463360E080E290E00E94343340E050E09F
:104D3000BA0188E190E00E9446330C943A260C9424
:104D40004126682F8EE090E00C943433AC019C0136
:104D50002E5F3F4F485F5F4F80E02417350709F40F
:104D60000895F90191919F019923B9F38F5FF5CFD0
:104D70009C01662351F0FC013296285F3F4F8191E0
:104D8000861729F0E217F307D1F780E0089581E054
:104D900008959C01FC0132968FEF90E041914617F7
:104DA00051F08F3F19F4411101C0892F9F5F963058
:104DB000A9F78F3F09F40895280F311D87FD3A9513
:104DC000F901628308959C01FC013296285F3F4FF0
:104DD0008191861303C0DF0111971C92E217F3073C
:104DE000B9F708950C94C9260C94E326FC01329679
:104DF00086E0DF011D928A95E9F7089508950895E8
:104E00000C94FF260E94002780911904843049F1F8
:104E100010923E0388E190E020E40FB6F894A89544
:104E2000809360000FBE2093600080E00E94B70571
:104E30000E94002783B7817F846083BF83B781602E
:104E400083BF7894889583B78E7F83BF0FB6F8941D
:104E5000A895809160008861809360001092600046
:104E60000FBE08950895CF930E94FE260E94300839
:104E70000E943227C0E08C2F0E94A107811105C03B
:104E8000CF5FC830C1F7CF91089581E0FCCF08957E
:104E90000C9447270E94F51E0E94411A0E94B705F4
:104EA0000C9448271F921FB61F9211248F939F9333
:104EB000AF93BF9380913E03811113C080910F0483
:104EC00090911004A0911104B09112044196A11D7B
:104ED000B11D80930F0490931004A0931104B0931C
:104EE0001204BF91AF919F918F911F901FBE1F9091
:104EF000189582E084BD93E095BD9AEF97BD8093AD
:104F00006E0008952FB7F89480910F0490911004CB
:104F1000A0911104B09112042FBF0895CF93DF9395
:104F200000D000D0CDB7DEB78FB7F89420910F0432
:104F300030911004409111045091120429833A8356
:104F40004B835C838FBF69817A818B819C810F90B9
:104F50000F900F900F90DF91CF9108959C014FB764
:104F6000F89480910F0490911004A0911104B091D5
:104F700012044FBF821B930B089578941F921FB6A3
:104F80001F9211248F939F93AF93BF9380910F042F
:104F900090911004A0911104B09112040196A11DEA
:104FA000B11D80930F0490931004A0931104B0934B
:104FB0001204BF91AF919F918F911F901FBE1F90C0
:104FC000189587E797E7909301088093000888E198
:104FD0009AE00FB6F894A895809360000FBE909366
:104FE0006000FFCF0C9441130E9430088FE39CE9CE
:104FF0000197F1F700C000000E94300880E00E9495
:10500000A10780FF04C00E94F2270C94E1270895B5
:10501000CF93DF9300D000D0CDB7DEB70E94F62546
:10502000811102C00E949F260E94012680933D03A9
:105030000E940E2690931404809313040E94052668
:10504000282F30E050E040E0CA01B9010E948422DC
:105050008091280390912903A0912A03B0912B03FA
:1050600089839A83AB83BC83BC01CD010F900F90E1
:105070000F900F90DF91CF910C9400238091450306
:1050800080FF12C060912F0185E0689FB00111245C
:10509000759567957595679560387105A8F56115E3
:1050A0007105A1F1862F089581FF09C060912F013C
:1050B00085E0689FB001112475956795EDCF6091EB
:1050C0002F0182FD0AC0809144038823D1F0909182
:1050D0002E0160912F01891728F085E0689FB001AB
:1050E0001124DACF869FB001112485E0869F9001BC
:1050F000879F300D1124692F70E0C9010E9427326B
:10510000CBCF65E070E0CECF8FE7089581E00895C2
:105110008091450380FF0CC060912B0170E0759574
:105120006795759567956115710549F1862F089505
:1051300081FF06C060912B0170E075956795F3CFF4
:1051400060912B0182FD0BC0909143039923A1F044
:1051500060912A0180912B01961738F0682F70E03A
:105160006038710500F38FE70895899FC00111240D
:1051700070E00E942732F4CF61E070E0D7CF81E089
:105180000895803F31F40E943E2881958093490321
:105190000895813F19F40E943E28F8CF823F31F4F0
:1051A0000E943E288195809348030895833F19F417
:1051B0000E943E28F8CF893F29F40E9488288093D6
:1051C0004A0308958A3F21F40E9488288195F7CFE9
:1051D0008B3F31F40E948828819580934B0308957A
:1051E0008C3F19F40E948828F8CF843F31F48091D5
:1051F00047038160809347030895853F21F48091A0
:1052000047038260F7CF863F21F480914703846093
:10521000F1CF873F21F4809147038860EBCF883F2F
:1052200021F4809147038061E5CF8D3F31F4809177
:10523000450381608093450308958E3F21F480915A
:1052400045038260F7CF8F3FB9F7809145038460B3
:10525000F1CF90914803803F59F48091490387FF33
:105260000DC01092490391110BC01092440308C065
:10527000813F81F48091490318169CF3992381F0B2
:1052800080914A0390914B03892B09F064C01092DE
:1052900043030895823F49F497FFF0CF10924803EB
:1052A000809149038111ECCFE0CF833F19F41916A7
:1052B000ACF3E4CF20914A03893F29F41216F4F6A7
:1052C00010924A03DBCF8A3F19F427FFD7CFF8CFDC
:1052D00020914B038B3F29F427FFD0CF10924B0333
:1052E000CDCF8C3F19F41216CCF3C8CF843F31F4E4
:1052F000809147038E7F80934703C0CF853F21F481
:10530000809147038D7FF7CF863F21F4809147033B
:105310008B7FF1CF873F21F480914703877FEBCFCD
:10532000883F21F4809147038F7EE5CF8D3F31F494
:10533000809145038E7F80934503A0CF8E3F21F45B
:10534000809145038D7FF7CF8F3F09F097CF8091F4
:1053500045038B7FF0CF08950E9482272091480358
:1053600030914903232B21F0809341039093420312
:1053700020914A0330914B03232B21F080933F036C
:105380009093400386E493E00C94581AEF92FF92B6
:105390000F931F93CF93DF9300D000D000D0CDB7F1
:1053A000DEB786E0E6E4F3E0DE01119601900D92AF
:1053B0008A95E1F7E0904803F090490300914A0391
:1053C00010914B03109248031092490310924A0324
:1053D00010924B038F2D8E2991F080914103909173
:1053E00042030E94AE279C0180914403882309F464
:1053F00043C0909130019217130608F44BC0802FE0
:10540000812B91F080913F03909140030E94AE2741
:105410009C0180914303882309F47BC090912C0167
:105420009217130608F483C08091480390914903B2
:10543000892B90914A03892B90914B03892B11F072
:105440000E94AC29EB82FC820D831E8386E0FE0164
:105450003196A6E4B3E001900D928A95E1F7269685
:105460000FB6F894DEBF0FBECDBFDF91CF911F9175
:105470000F91FF90EF900895409131019AE0499F7C
:10548000A00111244217530708F0B9CF8F5F809312
:10549000440302C08F3FD1F7EE2059F00E943E280E
:1054A0009FEF1E140CF491E0899F802D11248093AE
:1054B0004803FF2059F00E943E289FEF1F140CF470
:1054C00091E0899F802D11248093490330914803F6
:1054D000332309F494CF20914903222309F48FCF79
:1054E00045EB3403C0011124992359F090934803EC
:1054F00045EB240390011124332339F03093490301
:105500007ECF81E080934803F3CF81E0809349030D
:1055100076CF40912D019AE0499FA00111244217B6
:10552000530708F081CF8F5F8093430302C08F3F02
:10553000D1F7002359F00E9488289FEF10160CF431
:1055400091E0899F802D112480934A03112359F003
:105550000E9488289FEF11160CF491E0899F802DFE
:10556000112480934B0330914A03332309F45CCF19
:1055700020914B03222309F457CF45EB3403C0019C
:105580001124992359F090934A0345EB2403900189
:105590001124332339F030934B0346CF81E08093BD
:1055A0004A03F3CF81E080934B033ECF86E0E6E4ED
:1055B000F3E0DF011D928A95E9F7109244031092FF
:1055C000430310924503089580915403089508956C
:1055D00024E02093E9002FEF3091E800215035FDC1
:1055E00006C035ED3A95F1F700002111F5CF209175
:1055F000E80025FF0BC050E040E066E070E00E944C
:10560000222D8091E8008E778093E8000895CF9353
:10561000DF93D82FC92F81E08093E9008FEF90911D
:10562000E800815095FD06C095ED9A95F1F70000D0
:105630008111F5CF8091E80085FF16C050E040E071
:1056400068E070E08D2F9C2F0E94222D8091E80051
:105650008E778093E80088E0ED2FFC2FACE4B3E078
:1056600001900D928A95E1F7DF91CF910895089509
:10567000CF93603219F5209119042430F9F4C091C8
:10568000E900CF703091EC00232F217030FD20E82D
:10569000C22B22E02093E9002091E80020FF0BC0FC
:1056A00050E040E060E270E00E94222D8091E8002E
:1056B0008E778093E800CF70C093E900CF91089572
:1056C00080911804811109C00E94F92E0E94562F62
:1056D0008091E20084608093E200089510921804A3
:1056E0000895089508950C944A2742E061EC81E002
:1056F0000E94752E42E261EC84E00E94752E42E227
:1057000061EC82E00E94752E42E260EC83E00C9432
:10571000752E80911B04893089F148F4823009F498
:105720009EC0833009F459C0813041F008958A3019
:1057300009F485C08B3009F46BC0089580911A0478
:10574000813A09F049C08091E800877F8093E800A2
:1057500080911E0490911F04892B61F468E08CE411
:1057600093E070E00E94C02D8091E8008B778093D9
:10577000E800089560E090E080E0F3CF80911A04A3
:10578000813251F580911E0490911F048D7F892BE9
:1057900019F58091E800877F8093E8008091E80008
:1057A00082FF16C09091F3008091F200029729F4D5
:1057B0008091F1008B7F813021F48091F100809302
:1057C00054038091E8008B778093E8000C94A92E15
:1057D000809119048111E2CF089580911A04813AD1
:1057E000D9F780911E0490911F04892BA9F780910D
:1057F000E800877F8093E8008091E80080FFFCCF7D
:1058000080913C018093F1008091E8008E77DCCF9D
:1058100080911A04813201F780911E0490911F0437
:10582000892BD1F68091E800877F8093E8000E9461
:10583000A92E80911C0480933C010C94F51E80914C
:105840001A04813249F68091E800877F8093E8004E
:105850000E94A92E80911D04809355030895809184
:105860001A04813A09F0B8CF8091E800877F8093CD
:10587000E8008091E80080FFFCCF80915503C2CF03
:10588000CDB7DEB7A0970FB6F894DEBF0FBECDBF81
:1058900084B7877F84BF0FB6F894A8958091600085
:1058A000886180936000109260000FBE80E890E0F5
:1058B0000FB6F89480936100909361000FBE0E9430
:1058C000A11A0E94F92E0E94562F8091E200846056
:1058D0008093E20078940E94DE310E94AB1A82E34A
:1058E00091E00E943C1A13E080911904853059F030
:1058F0000E94B71A80911904843091F00E94A91A6D
:105900000E94AA1AF1CF0E940227809117048823CF
:1059100059F30E943327882339F30E940C2DE4CFDA
:105920001093E9008091E80082FFE8CF8091E800C1
:1059300090E085FF09C050E040E060E270E0CE01F9
:1059400001960E94712D91E08091E8008B77809301
:10595000E800992399F260E2CE0101960E940614B4
:10596000CDCF0C94B32CFC01CB01DA012F2F3327C0
:1059700023303105D1F070F42130310509F447C0EE
:105980002230310569F48BE590E02AE135E02D9372
:105990003C93089521323105E9F02232310539F185
:1059A00090E080E030E020E0F2CFCF019927E130B5
:1059B00059F08230910559F0E6E1F5E0892B81F745
:1059C000849190E09F01E3CFEEEFF4E0F9CFE6EEB3
:1059D000F4E0F6CF6330710518F7880F991FFC01CA
:1059E000ED57FE4F2081318189E090E0D0CF6330C8
:1059F0007105B0F6FB01EE0FFF1FE358FE4F20814B
:105A0000318186589E4FFC01808190E0C0CF82E1B9
:105A100090E025E735E0BBCF80E189BD82E189BD1B
:105A200009B400FEFDCF8091D8008F7D8093D8000F
:105A30008091E00082608093E0008091E00081FD31
:105A4000FCCF0895AF92BF92CF92DF92FF920F9357
:105A50001F93CF93DF936C01EB018A010E94C82E44
:105A6000F82E811123C00115110539F0F80180814C
:105A70009181C81BD90BC80ED91EB12CA12C20971F
:105A8000A9F08091E80085FD22C08091E8008E7722
:105A90008093E80001151105A1F0F8018081918142
:105AA000A80EB91EB182A08285E0F82E8F2DDF915D
:105AB000CF911F910F91FF90DF90CF90BF90AF904B
:105AC00008950E94C82E8823D1F2F82EEFCFF60158
:105AD00081916F018093F1002197FFEFAF1ABF0A08
